{
  "_format": "hh-sol-artifact-1",
  "contractName": "FileSolvers",
  "sourceName": "contracts/FileSolvers.sol",
  "abi": [
    {
      "inputs": [],
      "stateMutability": "nonpayable",
      "type": "constructor"
    },
    {
      "inputs": [],
      "name": "MissingParams",
      "type": "error"
    },
    {
      "inputs": [],
      "name": "RequestClosed",
      "type": "error"
    },
    {
      "inputs": [],
      "name": "RequestNotFound",
      "type": "error"
    },
    {
      "inputs": [],
      "name": "WrongExpirationDate",
      "type": "error"
    },
    {
      "inputs": [],
      "name": "WrongFormat",
      "type": "error"
    },
    {
      "inputs": [
        {
          "internalType": "string",
          "name": "description",
          "type": "string"
        },
        {
          "internalType": "string[]",
          "name": "formatsAccepted",
          "type": "string[]"
        },
        {
          "internalType": "uint256",
          "name": "reward",
          "type": "uint256"
        },
        {
          "internalType": "uint256",
          "name": "expirationDate",
          "type": "uint256"
        }
      ],
      "name": "createRequest",
      "outputs": [],
      "stateMutability": "nonpayable",
      "type": "function"
    },
    {
      "inputs": [],
      "name": "getMyRequests",
      "outputs": [
        {
          "components": [
            {
              "internalType": "uint256",
              "name": "id",
              "type": "uint256"
            },
            {
              "internalType": "string",
              "name": "description",
              "type": "string"
            },
            {
              "internalType": "bool",
              "name": "isDone",
              "type": "bool"
            },
            {
              "internalType": "address",
              "name": "author",
              "type": "address"
            },
            {
              "internalType": "address",
              "name": "winner",
              "type": "address"
            },
            {
              "internalType": "string[]",
              "name": "formatsAccepted",
              "type": "string[]"
            },
            {
              "internalType": "uint256",
              "name": "reward",
              "type": "uint256"
            },
            {
              "internalType": "uint256",
              "name": "creationDate",
              "type": "uint256"
            },
            {
              "internalType": "uint256",
              "name": "expirationDate",
              "type": "uint256"
            },
            {
              "internalType": "uint256",
              "name": "filesCount",
              "type": "uint256"
            },
            {
              "internalType": "uint256",
              "name": "winnerFile",
              "type": "uint256"
            }
          ],
          "internalType": "struct FileSolvers.Request[]",
          "name": "",
          "type": "tuple[]"
        }
      ],
      "stateMutability": "view",
      "type": "function"
    },
    {
      "inputs": [
        {
          "internalType": "uint256",
          "name": "id",
          "type": "uint256"
        }
      ],
      "name": "getRequest",
      "outputs": [
        {
          "components": [
            {
              "internalType": "uint256",
              "name": "id",
              "type": "uint256"
            },
            {
              "internalType": "string",
              "name": "description",
              "type": "string"
            },
            {
              "internalType": "bool",
              "name": "isDone",
              "type": "bool"
            },
            {
              "internalType": "address",
              "name": "author",
              "type": "address"
            },
            {
              "internalType": "address",
              "name": "winner",
              "type": "address"
            },
            {
              "internalType": "string[]",
              "name": "formatsAccepted",
              "type": "string[]"
            },
            {
              "internalType": "uint256",
              "name": "reward",
              "type": "uint256"
            },
            {
              "internalType": "uint256",
              "name": "creationDate",
              "type": "uint256"
            },
            {
              "internalType": "uint256",
              "name": "expirationDate",
              "type": "uint256"
            },
            {
              "internalType": "uint256",
              "name": "filesCount",
              "type": "uint256"
            },
            {
              "internalType": "uint256",
              "name": "winnerFile",
              "type": "uint256"
            }
          ],
          "internalType": "struct FileSolvers.Request",
          "name": "",
          "type": "tuple"
        }
      ],
      "stateMutability": "view",
      "type": "function"
    },
    {
      "inputs": [],
      "name": "getRequests",
      "outputs": [
        {
          "components": [
            {
              "internalType": "uint256",
              "name": "id",
              "type": "uint256"
            },
            {
              "internalType": "string",
              "name": "description",
              "type": "string"
            },
            {
              "internalType": "bool",
              "name": "isDone",
              "type": "bool"
            },
            {
              "internalType": "address",
              "name": "author",
              "type": "address"
            },
            {
              "internalType": "address",
              "name": "winner",
              "type": "address"
            },
            {
              "internalType": "string[]",
              "name": "formatsAccepted",
              "type": "string[]"
            },
            {
              "internalType": "uint256",
              "name": "reward",
              "type": "uint256"
            },
            {
              "internalType": "uint256",
              "name": "creationDate",
              "type": "uint256"
            },
            {
              "internalType": "uint256",
              "name": "expirationDate",
              "type": "uint256"
            },
            {
              "internalType": "uint256",
              "name": "filesCount",
              "type": "uint256"
            },
            {
              "internalType": "uint256",
              "name": "winnerFile",
              "type": "uint256"
            }
          ],
          "internalType": "struct FileSolvers.Request[]",
          "name": "",
          "type": "tuple[]"
        }
      ],
      "stateMutability": "view",
      "type": "function"
    },
    {
      "inputs": [
        {
          "internalType": "uint256",
          "name": "id",
          "type": "uint256"
        },
        {
          "internalType": "string",
          "name": "fileName",
          "type": "string"
        },
        {
          "internalType": "string",
          "name": "format",
          "type": "string"
        },
        {
          "internalType": "string",
          "name": "description",
          "type": "string"
        },
        {
          "internalType": "string",
          "name": "cid",
          "type": "string"
        }
      ],
      "name": "sendFileToRequest",
      "outputs": [],
      "stateMutability": "nonpayable",
      "type": "function"
    }
  ],
  "bytecode": "0x60806040523480156200001157600080fd5b506200002e678a33c3b4ad65fa3060c01b6200009160201b60201c565b6200004a678b482a2df0e349a460c01b6200009160201b60201c565b33600660006101000a81548173ffffffffffffffffffffffffffffffffffffffff021916908373ffffffffffffffffffffffffffffffffffffffff16021790555062000094565b50565b6130fb80620000a46000396000f3fe608060405234801561001057600080fd5b50600436106100575760003560e01c80631109a25a1461005c5780632a48747a146100785780638813ce121461009457806391eace8b146100b2578063c58343ef146100d0575b600080fd5b6100766004803603810190610071919061240d565b610100565b005b610092600480360381019061008d91906124b4565b6105eb565b005b61009c610fe7565b6040516100a99190612925565b60405180910390f35b6100ba6113b5565b6040516100c79190612925565b60405180910390f35b6100ea60048036038101906100e59190612947565b6119e3565b6040516100f79190612a6a565b60405180910390f35b610114673b4510ca50e706f560c01b611d46565b61012867c4b1db3119e0762e60c01b611d46565b61013c67f339570d5b00341660c01b611d46565b6000821161018a57610158677131338eb29a3d9660c01b611d46565b6040517fd45f010c00000000000000000000000000000000000000000000000000000000815260040160405180910390fd5b61019e679fd6a00c982cfedb60c01b611d46565b6101b267f154116887e6356b60c01b611d46565b6101c66740f0ddad3c34b3ae60c01b611d46565b60008484905003610217576101e5677bd47e8a9d954a2560c01b611d46565b6040517fd45f010c00000000000000000000000000000000000000000000000000000000815260040160405180910390fd5b61022b67408ec8eb20606ca760c01b611d46565b61023f67fbcb47d5e7dd89db60c01b611d46565b61025367fe8472bd885a0e8b60c01b611d46565b600086869050036102a4576102726776c38e63150e6b4a60c01b611d46565b6040517fd45f010c00000000000000000000000000000000000000000000000000000000815260040160405180910390fd5b6102b8675612e076151debcf60c01b611d46565b6102cc670f5e51ae6aed560260c01b611d46565b6102e067fd7a0de50abea0f360c01b611d46565b60004290506102f967d2d0a3f378cd0edb60c01b611d46565b61030d679b074ad5420a42ae60c01b611d46565b80821161035a57610328677312ba46cc78460b60c01b611d46565b6040517ffef5a96000000000000000000000000000000000000000000000000000000000815260040160405180910390fd5b61036e6706d474e8443697c360c01b611d46565b61038267d2b43f828b6b553b60c01b611d46565b6103966762eb45cdf3a28f2b60c01b611d46565b6000604051806101600160405280600054815260200189898080601f016020809104026020016040519081016040528093929190818152602001838380828437600081840152601f19601f8201169050808301925050505050505081526020016000151581526020013373ffffffffffffffffffffffffffffffffffffffff168152602001600073ffffffffffffffffffffffffffffffffffffffff1681526020018787906104459190612c6f565b8152602001858152602001838152602001848152602001600081526020016000815250905061047e6780da59ef1d09ade660c01b611d46565b8060026000805481526020019081526020016000206000820151816000015560208201518160010190816104b29190612e90565b5060408201518160020160006101000a81548160ff02191690831515021790555060608201518160020160016101000a81548173ffffffffffffffffffffffffffffffffffffffff021916908373ffffffffffffffffffffffffffffffffffffffff16021790555060808201518160030160006101000a81548173ffffffffffffffffffffffffffffffffffffffff021916908373ffffffffffffffffffffffffffffffffffffffff16021790555060a082015181600401908051906020019061057d9291906121a6565b5060c0820151816005015560e082015181600601556101008201518160070155610120820151816008015561014082015181600901559050506105ca674a34ec198463a72760c01b611d46565b6000808154809291906105dc90612f91565b91905055505050505050505050565b6105ff674a0b9926c7d0f3e860c01b611d46565b61061367e30e3a96a127e0b760c01b611d46565b610627670138a923f0e376fa60c01b611d46565b60005489106106765761064467363bed8e5e772fac60c01b611d46565b6040517f4b13b31e00000000000000000000000000000000000000000000000000000000815260040160405180910390fd5b61068a67e357d4be6ee358fc60c01b611d46565b61069e67aba580e2983d713460c01b611d46565b6106b267d2deb4a7604673d660c01b611d46565b6000600260008b815260200190815260200160002060405180610160016040529081600082015481526020016001820180546106ed90612cb3565b80601f016020809104026020016040519081016040528092919081815260200182805461071990612cb3565b80156107665780601f1061073b57610100808354040283529160200191610766565b820191906000526020600020905b81548152906001019060200180831161074957829003601f168201915b505050505081526020016002820160009054906101000a900460ff161515151581526020016002820160019054906101000a900473ffffffffffffffffffffffffffffffffffffffff1673ffffffffffffffffffffffffffffffffffffffff1673ffffffffffffffffffffffffffffffffffffffff1681526020016003820160009054906101000a900473ffffffffffffffffffffffffffffffffffffffff1673ffffffffffffffffffffffffffffffffffffffff1673ffffffffffffffffffffffffffffffffffffffff16815260200160048201805480602002602001604051908101604052809291908181526020016000905b8282101561090757838290600052602060002001805461087a90612cb3565b80601f01602080910402602001604051908101604052809291908181526020018280546108a690612cb3565b80156108f35780601f106108c8576101008083540402835291602001916108f3565b820191906000526020600020905b8154815290600101906020018083116108d657829003601f168201915b50505050508152602001906001019061085b565b50505050815260200160058201548152602001600682015481526020016007820154815260200160088201548152602001600982015481525050905061095767068fe7ef6a5cba1b60c01b611d46565b61096b67a4619d164093712a60c01b611d46565b8060400151156109bb5761098967c582e09080105d5660c01b611d46565b6040517f6155e82400000000000000000000000000000000000000000000000000000000815260040160405180910390fd5b6109cf67a3f12a79d450ca7a60c01b611d46565b6109e36755fc56bb5e017f4e60c01b611d46565b6109f767f39f7057ce08fa7d60c01b611d46565b60008989905003610a4857610a16672d82a65264104b7160c01b611d46565b6040517fd45f010c00000000000000000000000000000000000000000000000000000000815260040160405180910390fd5b610a5c679b1b74fb58c8536f60c01b611d46565b610a7067dfae99f588649f4a60c01b611d46565b610a8467b548462f4443a65060c01b611d46565b60008383905003610ad557610aa367ae68bb4f4884717860c01b611d46565b6040517fd45f010c00000000000000000000000000000000000000000000000000000000815260040160405180910390fd5b610ae96739f2e5c4433c0abc60c01b611d46565b610afd673f2d4dc3141d51a960c01b611d46565b610b11673c86c6e64abfecae60c01b611d46565b60008585905003610b6257610b3067feaf95a45455359860c01b611d46565b6040517fd45f010c00000000000000000000000000000000000000000000000000000000815260040160405180910390fd5b610b766790fb95e573f1fe2c60c01b611d46565b610b8a67aa966f6390ddd28e60c01b611d46565b610b9e6708db980fef72410a60c01b611d46565b610ba98a8888611d49565b610bf357610bc167e54680682356e3b860c01b611d46565b6040517fe1e517f800000000000000000000000000000000000000000000000000000000815260040160405180910390fd5b610c0767b0823bfb208ce10560c01b611d46565b610c1b6770132674727d978160c01b611d46565b610c2f677c576055452d638c60c01b611d46565b60006040518060e0016040528060015481526020018b8b8080601f016020809104026020016040519081016040528093929190818152602001838380828437600081840152601f19601f82011690508083019250505050505050815260200189898080601f016020809104026020016040519081016040528093929190818152602001838380828437600081840152601f19601f82011690508083019250505050505050815260200187878080601f016020809104026020016040519081016040528093929190818152602001838380828437600081840152601f19601f82011690508083019250505050505050815260200185858080601f016020809104026020016040519081016040528093929190818152602001838380828437600081840152601f19601f8201169050808301925050505050505081526020013373ffffffffffffffffffffffffffffffffffffffff168152602001428152509050610da2671bbebb6be1791dee60c01b611d46565b80600360006001548152602001908152602001600020600082015181600001556020820151816001019081610dd79190612e90565b506040820151816002019081610ded9190612e90565b506060820151816003019081610e039190612e90565b506080820151816004019081610e199190612e90565b5060a08201518160050160006101000a81548173ffffffffffffffffffffffffffffffffffffffff021916908373ffffffffffffffffffffffffffffffffffffffff16021790555060c08201518160060155905050610e8267cc35e6ea4299338a60c01b611d46565b610e96672d7f72f0f663f93b60c01b611d46565b600460008c8152602001908152602001600020339080600181540180825580915050600190039060005260206000200160009091909190916101000a81548173ffffffffffffffffffffffffffffffffffffffff021916908373ffffffffffffffffffffffffffffffffffffffff160217905550610f1e67eb8581c65bdade6c60c01b611d46565b610f3267d5af866bf5222ffb60c01b611d46565b600560008c81526020019081526020016000206001549080600181540180825580915050600190039060005260206000200160009091909190915055610f82672c1455888ff8eda860c01b611d46565b600260008c81526020019081526020016000206008016000815480929190610fa990612f91565b9190505550610fc267ba451a1caf239d5a60c01b611d46565b60016000815480929190610fd590612f91565b91905055505050505050505050505050565b6060610ffd67388baa61dabe11c560c01b611d46565b61101167cc5501d127b2d70760c01b611d46565b61102567b6c61f07ef9861f360c01b611d46565b6000805467ffffffffffffffff81111561104257611041612a8c565b5b60405190808252806020026020018201604052801561107b57816020015b6110686121ff565b8152602001906001900390816110605790505b509050611092674d2d6eb7a25d80bf60c01b611d46565b6110a667447a6e66561dd43360c01b611d46565b60005b600054811015611385576110c767c6fd322a5727fdf060c01b611d46565b60026000828152602001908152602001600020604051806101600160405290816000820154815260200160018201805461110090612cb3565b80601f016020809104026020016040519081016040528092919081815260200182805461112c90612cb3565b80156111795780601f1061114e57610100808354040283529160200191611179565b820191906000526020600020905b81548152906001019060200180831161115c57829003601f168201915b505050505081526020016002820160009054906101000a900460ff161515151581526020016002820160019054906101000a900473ffffffffffffffffffffffffffffffffffffffff1673ffffffffffffffffffffffffffffffffffffffff1673ffffffffffffffffffffffffffffffffffffffff1681526020016003820160009054906101000a900473ffffffffffffffffffffffffffffffffffffffff1673ffffffffffffffffffffffffffffffffffffffff1673ffffffffffffffffffffffffffffffffffffffff16815260200160048201805480602002602001604051908101604052809291908181526020016000905b8282101561131a57838290600052602060002001805461128d90612cb3565b80601f01602080910402602001604051908101604052809291908181526020018280546112b990612cb3565b80156113065780601f106112db57610100808354040283529160200191611306565b820191906000526020600020905b8154815290600101906020018083116112e957829003601f168201915b50505050508152602001906001019061126e565b5050505081526020016005820154815260200160068201548152602001600782015481526020016008820154815260200160098201548152505082828151811061136757611366612fd9565b5b6020026020010181905250808061137d90612f91565b9150506110a9565b5061139a67bbf538a3fa93600c60c01b611d46565b6113ae670b5c37743915551560c01b611d46565b8091505090565b60606113cb6719cb7b71b95e37ec60c01b611d46565b6113df67a9e0ce5a248214e860c01b611d46565b6113f367347a9f7daebe6a6a60c01b611d46565b600061140967889af4be379be85b60c01b611d46565b61141d67310bb5dd8ee4516b60c01b611d46565b60005b60005481101561151e5761143e679edaccfc2343d13860c01b611d46565b611452679f2dc4a5fae3e79260c01b611d46565b6002600082815260200190815260200160002060020160019054906101000a900473ffffffffffffffffffffffffffffffffffffffff1673ffffffffffffffffffffffffffffffffffffffff163373ffffffffffffffffffffffffffffffffffffffff16036114f6576114cf679922b44d23a3fa5160c01b611d46565b6114e367a6bd47dbda4bae9c60c01b611d46565b81806114ee90612f91565b92505061150b565b61150a67464e311af999466f60c01b611d46565b5b808061151690612f91565b915050611420565b506115336712bc2cf8c879f51660c01b611d46565b611547676efbe603bf8bb8ee60c01b611d46565b60008167ffffffffffffffff81111561156357611562612a8c565b5b60405190808252806020026020018201604052801561159c57816020015b6115896121ff565b8152602001906001900390816115815790505b5090506115b367a87490be08ca1fbe60c01b611d46565b6115c7673a38166b1a259a2060c01b611d46565b60006115dd67b9b765bafe86c5e360c01b611d46565b6115f167b3fee3d58d0b3df660c01b611d46565b60005b6000548110156119b15761161267dd061ffbbdfb1c5560c01b611d46565b6116266768c8c7faee911e3d60c01b611d46565b6002600082815260200190815260200160002060020160019054906101000a900473ffffffffffffffffffffffffffffffffffffffff1673ffffffffffffffffffffffffffffffffffffffff163373ffffffffffffffffffffffffffffffffffffffff1603611989576116a367ad847851eb7cdfe360c01b611d46565b6116b7673b4f9eac9ca0795660c01b611d46565b6002600082815260200190815260200160002060405180610160016040529081600082015481526020016001820180546116f090612cb3565b80601f016020809104026020016040519081016040528092919081815260200182805461171c90612cb3565b80156117695780601f1061173e57610100808354040283529160200191611769565b820191906000526020600020905b81548152906001019060200180831161174c57829003601f168201915b505050505081526020016002820160009054906101000a900460ff161515151581526020016002820160019054906101000a900473ffffffffffffffffffffffffffffffffffffffff1673ffffffffffffffffffffffffffffffffffffffff1673ffffffffffffffffffffffffffffffffffffffff1681526020016003820160009054906101000a900473ffffffffffffffffffffffffffffffffffffffff1673ffffffffffffffffffffffffffffffffffffffff1673ffffffffffffffffffffffffffffffffffffffff16815260200160048201805480602002602001604051908101604052809291908181526020016000905b8282101561190a57838290600052602060002001805461187d90612cb3565b80601f01602080910402602001604051908101604052809291908181526020018280546118a990612cb3565b80156118f65780601f106118cb576101008083540402835291602001916118f6565b820191906000526020600020905b8154815290600101906020018083116118d957829003601f168201915b50505050508152602001906001019061185e565b5050505081526020016005820154815260200160068201548152602001600782015481526020016008820154815260200160098201548152505083838151811061195757611956612fd9565b5b602002602001018190525061197667adbcc3dfbdbd0a0d60c01b611d46565b818061198190612f91565b92505061199e565b61199d67d3192eca523ef1eb60c01b611d46565b5b80806119a990612f91565b9150506115f4565b506119c6676b180d1ada1cb1db60c01b611d46565b6119da67d11d35a6dcaf872d60c01b611d46565b81935050505090565b6119eb6121ff565b6119ff67da7deffacd7c7b6c60c01b611d46565b611a1367d333d4844f54db4960c01b611d46565b611a27673c6d70e0c13c139e60c01b611d46565b6000548210611a7657611a4467f2d10d395198741b60c01b611d46565b6040517f4b13b31e00000000000000000000000000000000000000000000000000000000815260040160405180910390fd5b611a8a670134f78c554e5cae60c01b611d46565b611a9e674dfb6725fd8a185860c01b611d46565b611ab26756657d25d47a399a60c01b611d46565b600260008381526020019081526020016000206040518061016001604052908160008201548152602001600182018054611aeb90612cb3565b80601f0160208091040260200160405190810160405280929190818152602001828054611b1790612cb3565b8015611b645780601f10611b3957610100808354040283529160200191611b64565b820191906000526020600020905b815481529060010190602001808311611b4757829003601f168201915b505050505081526020016002820160009054906101000a900460ff161515151581526020016002820160019054906101000a900473ffffffffffffffffffffffffffffffffffffffff1673ffffffffffffffffffffffffffffffffffffffff1673ffffffffffffffffffffffffffffffffffffffff1681526020016003820160009054906101000a900473ffffffffffffffffffffffffffffffffffffffff1673ffffffffffffffffffffffffffffffffffffffff1673ffffffffffffffffffffffffffffffffffffffff16815260200160048201805480602002602001604051908101604052809291908181526020016000905b82821015611d05578382906000526020600020018054611c7890612cb3565b80601f0160208091040260200160405190810160405280929190818152602001828054611ca490612cb3565b8015611cf15780601f10611cc657610100808354040283529160200191611cf1565b820191906000526020600020905b815481529060010190602001808311611cd457829003601f168201915b505050505081526020019060010190611c59565b505050508152602001600582015481526020016006820154815260200160078201548152602001600882015481526020016009820154815250509050919050565b50565b6000611d5f67a2d8b7a5b74fe44f60c01b611d46565b611d7367cef2d8ad71e5ca8360c01b611d46565b611d876738d06791e83a6c2660c01b611d46565b6000600260008681526020019081526020016000206040518061016001604052908160008201548152602001600182018054611dc290612cb3565b80601f0160208091040260200160405190810160405280929190818152602001828054611dee90612cb3565b8015611e3b5780601f10611e1057610100808354040283529160200191611e3b565b820191906000526020600020905b815481529060010190602001808311611e1e57829003601f168201915b505050505081526020016002820160009054906101000a900460ff161515151581526020016002820160019054906101000a900473ffffffffffffffffffffffffffffffffffffffff1673ffffffffffffffffffffffffffffffffffffffff1673ffffffffffffffffffffffffffffffffffffffff1681526020016003820160009054906101000a900473ffffffffffffffffffffffffffffffffffffffff1673ffffffffffffffffffffffffffffffffffffffff1673ffffffffffffffffffffffffffffffffffffffff16815260200160048201805480602002602001604051908101604052809291908181526020016000905b82821015611fdc578382906000526020600020018054611f4f90612cb3565b80601f0160208091040260200160405190810160405280929190818152602001828054611f7b90612cb3565b8015611fc85780601f10611f9d57610100808354040283529160200191611fc8565b820191906000526020600020905b815481529060010190602001808311611fab57829003601f168201915b505050505081526020019060010190611f30565b50505050815260200160058201548152602001600682015481526020016007820154815260200160088201548152602001600982015481525050905061202c6701d50fbc49155d4560c01b611d46565b612040675ae1e2d19302c7aa60c01b611d46565b60008160a00151905061205d6764b1fb69aba74c3c60c01b611d46565b612071677bd1993d040b01ff60c01b611d46565b60005b815181101561216f57612091675d6594d5592eb72a60c01b611d46565b6120a5678334a85b9c449d2960c01b611d46565b85856040516020016120b8929190613046565b604051602081830303815290604052805190602001208282815181106120e1576120e0612fd9565b5b60200260200101516040516020016120f991906130a3565b604051602081830303815290604052805190602001200361214857612128674d33f5702ba0463160c01b611d46565b61213c6711a0de3b5dd56a9160c01b611d46565b6001935050505061219f565b61215c670435a348f0a2750460c01b611d46565b808061216790612f91565b915050612074565b5061218467040f4646f1ccbb5f60c01b611d46565b6121986717cdd925dd895f9460c01b611d46565b6000925050505b9392505050565b8280548282559060005260206000209081019282156121ee579160200282015b828111156121ed5782518290816121dd9190612e90565b50916020019190600101906121c6565b5b5090506121fb9190612287565b5090565b6040518061016001604052806000815260200160608152602001600015158152602001600073ffffffffffffffffffffffffffffffffffffffff168152602001600073ffffffffffffffffffffffffffffffffffffffff1681526020016060815260200160008152602001600081526020016000815260200160008152602001600081525090565b5b808211156122a7576000818161229e91906122ab565b50600101612288565b5090565b5080546122b790612cb3565b6000825580601f106122c957506122e8565b601f0160209004906000526020600020908101906122e791906122eb565b5b50565b5b808211156123045760008160009055506001016122ec565b5090565b6000604051905090565b600080fd5b600080fd5b600080fd5b600080fd5b600080fd5b60008083601f8401126123415761234061231c565b5b8235905067ffffffffffffffff81111561235e5761235d612321565b5b60208301915083600182028301111561237a57612379612326565b5b9250929050565b60008083601f8401126123975761239661231c565b5b8235905067ffffffffffffffff8111156123b4576123b3612321565b5b6020830191508360208202830111156123d0576123cf612326565b5b9250929050565b6000819050919050565b6123ea816123d7565b81146123f557600080fd5b50565b600081359050612407816123e1565b92915050565b6000806000806000806080878903121561242a57612429612312565b5b600087013567ffffffffffffffff81111561244857612447612317565b5b61245489828a0161232b565b9650965050602087013567ffffffffffffffff81111561247757612476612317565b5b61248389828a01612381565b9450945050604061249689828a016123f8565b92505060606124a789828a016123f8565b9150509295509295509295565b600080600080600080600080600060a08a8c0312156124d6576124d5612312565b5b60006124e48c828d016123f8565b99505060208a013567ffffffffffffffff81111561250557612504612317565b5b6125118c828d0161232b565b985098505060408a013567ffffffffffffffff81111561253457612533612317565b5b6125408c828d0161232b565b965096505060608a013567ffffffffffffffff81111561256357612562612317565b5b61256f8c828d0161232b565b945094505060808a013567ffffffffffffffff81111561259257612591612317565b5b61259e8c828d0161232b565b92509250509295985092959850929598565b600081519050919050565b600082825260208201905092915050565b6000819050602082019050919050565b6125e5816123d7565b82525050565b600081519050919050565b600082825260208201905092915050565b60005b8381101561262557808201518184015260208101905061260a565b60008484015250505050565b6000601f19601f8301169050919050565b600061264d826125eb565b61265781856125f6565b9350612667818560208601612607565b61267081612631565b840191505092915050565b60008115159050919050565b6126908161267b565b82525050565b600073ffffffffffffffffffffffffffffffffffffffff82169050919050565b60006126c182612696565b9050919050565b6126d1816126b6565b82525050565b600081519050919050565b600082825260208201905092915050565b6000819050602082019050919050565b600061270f8383612642565b905092915050565b6000602082019050919050565b600061272f826126d7565b61273981856126e2565b93508360208202850161274b856126f3565b8060005b8581101561278757848403895281516127688582612703565b945061277383612717565b925060208a0199505060018101905061274f565b50829750879550505050505092915050565b6000610160830160008301516127b260008601826125dc565b50602083015184820360208601526127ca8282612642565b91505060408301516127df6040860182612687565b5060608301516127f260608601826126c8565b50608083015161280560808601826126c8565b5060a083015184820360a086015261281d8282612724565b91505060c083015161283260c08601826125dc565b5060e083015161284560e08601826125dc565b5061010083015161285a6101008601826125dc565b5061012083015161286f6101208601826125dc565b506101408301516128846101408601826125dc565b508091505092915050565b600061289b8383612799565b905092915050565b6000602082019050919050565b60006128bb826125b0565b6128c581856125bb565b9350836020820285016128d7856125cc565b8060005b8581101561291357848403895281516128f4858261288f565b94506128ff836128a3565b925060208a019950506001810190506128db565b50829750879550505050505092915050565b6000602082019050818103600083015261293f81846128b0565b905092915050565b60006020828403121561295d5761295c612312565b5b600061296b848285016123f8565b91505092915050565b60006101608301600083015161298d60008601826125dc565b50602083015184820360208601526129a58282612642565b91505060408301516129ba6040860182612687565b5060608301516129cd60608601826126c8565b5060808301516129e060808601826126c8565b5060a083015184820360a08601526129f88282612724565b91505060c0830151612a0d60c08601826125dc565b5060e0830151612a2060e08601826125dc565b50610100830151612a356101008601826125dc565b50610120830151612a4a6101208601826125dc565b50610140830151612a5f6101408601826125dc565b508091505092915050565b60006020820190508181036000830152612a848184612974565b905092915050565b7f4e487b7100000000000000000000000000000000000000000000000000000000600052604160045260246000fd5b612ac482612631565b810181811067ffffffffffffffff82111715612ae357612ae2612a8c565b5b80604052505050565b6000612af6612308565b9050612b028282612abb565b919050565b600067ffffffffffffffff821115612b2257612b21612a8c565b5b602082029050602081019050919050565b600080fd5b600067ffffffffffffffff821115612b5357612b52612a8c565b5b612b5c82612631565b9050602081019050919050565b82818337600083830152505050565b6000612b8b612b8684612b38565b612aec565b905082815260208101848484011115612ba757612ba6612b33565b5b612bb2848285612b69565b509392505050565b600082601f830112612bcf57612bce61231c565b5b8135612bdf848260208601612b78565b91505092915050565b6000612bfb612bf684612b07565b612aec565b90508083825260208201905060208402830185811115612c1e57612c1d612326565b5b835b81811015612c6557803567ffffffffffffffff811115612c4357612c4261231c565b5b808601612c508982612bba565b85526020850194505050602081019050612c20565b5050509392505050565b6000612c7c368484612be8565b905092915050565b7f4e487b7100000000000000000000000000000000000000000000000000000000600052602260045260246000fd5b60006002820490506001821680612ccb57607f821691505b602082108103612cde57612cdd612c84565b5b50919050565b60008190508160005260206000209050919050565b60006020601f8301049050919050565b600082821b905092915050565b600060088302612d467fffffffffffffffffffffffffffffffffffffffffffffffffffffffffffffffff82612d09565b612d508683612d09565b95508019841693508086168417925050509392505050565b6000819050919050565b6000612d8d612d88612d83846123d7565b612d68565b6123d7565b9050919050565b6000819050919050565b612da783612d72565b612dbb612db382612d94565b848454612d16565b825550505050565b600090565b612dd0612dc3565b612ddb818484612d9e565b505050565b5b81811015612dff57612df4600082612dc8565b600181019050612de1565b5050565b601f821115612e4457612e1581612ce4565b612e1e84612cf9565b81016020851015612e2d578190505b612e41612e3985612cf9565b830182612de0565b50505b505050565b600082821c905092915050565b6000612e6760001984600802612e49565b1980831691505092915050565b6000612e808383612e56565b9150826002028217905092915050565b612e99826125eb565b67ffffffffffffffff811115612eb257612eb1612a8c565b5b612ebc8254612cb3565b612ec7828285612e03565b600060209050601f831160018114612efa5760008415612ee8578287015190505b612ef28582612e74565b865550612f5a565b601f198416612f0886612ce4565b60005b82811015612f3057848901518255600182019150602085019450602081019050612f0b565b86831015612f4d5784890151612f49601f891682612e56565b8355505b6001600288020188555050505b505050505050565b7f4e487b7100000000000000000000000000000000000000000000000000000000600052601160045260246000fd5b6000612f9c826123d7565b91507fffffffffffffffffffffffffffffffffffffffffffffffffffffffffffffffff8203612fce57612fcd612f62565b5b600182019050919050565b7f4e487b7100000000000000000000000000000000000000000000000000000000600052603260045260246000fd5b600082825260208201905092915050565b60006130258385613008565b9350613032838584612b69565b61303b83612631565b840190509392505050565b60006020820190508181036000830152613061818486613019565b90509392505050565b6000613075826125eb565b61307f8185613008565b935061308f818560208601612607565b61309881612631565b840191505092915050565b600060208201905081810360008301526130bd818461306a565b90509291505056fea2646970667358221220a6699844163aa375efa5f748613c105c116a72625c13dedf9fe800dc7c0813b664736f6c63430008120033",
  "linkReferences": {},
  "deployedLinkReferences": {}
}