{
  "_format": "hh-sol-artifact-1",
  "contractName": "FileSolvers",
  "sourceName": "contracts/FileSolvers.sol",
  "abi": [
    {
      "inputs": [],
      "stateMutability": "nonpayable",
      "type": "constructor"
    },
    {
      "inputs": [],
      "name": "AlreadyHaveAWinner",
      "type": "error"
    },
    {
      "inputs": [],
      "name": "AlreadyParticipated",
      "type": "error"
    },
    {
      "inputs": [],
      "name": "AlreadyWithdraw",
      "type": "error"
    },
    {
      "inputs": [],
      "name": "AmountLessThanZero",
      "type": "error"
    },
    {
      "inputs": [],
      "name": "FileNotFound",
      "type": "error"
    },
    {
      "inputs": [],
      "name": "HaveToChooseWinner",
      "type": "error"
    },
    {
      "inputs": [],
      "name": "MissingParams",
      "type": "error"
    },
    {
      "inputs": [],
      "name": "NoParticipants",
      "type": "error"
    },
    {
      "inputs": [],
      "name": "RequestClosed",
      "type": "error"
    },
    {
      "inputs": [],
      "name": "RequestNotClosed",
      "type": "error"
    },
    {
      "inputs": [],
      "name": "RequestNotFound",
      "type": "error"
    },
    {
      "inputs": [],
      "name": "WrongExpirationDate",
      "type": "error"
    },
    {
      "inputs": [],
      "name": "WrongFormat",
      "type": "error"
    },
    {
      "inputs": [],
      "name": "YouAreNotTheAuthor",
      "type": "error"
    },
    {
      "inputs": [],
      "name": "YouCantParticipate",
      "type": "error"
    },
    {
      "stateMutability": "payable",
      "type": "fallback"
    },
    {
      "inputs": [
        {
          "internalType": "uint256",
          "name": "id",
          "type": "uint256"
        },
        {
          "internalType": "uint256",
          "name": "file",
          "type": "uint256"
        }
      ],
      "name": "chooseWinner",
      "outputs": [],
      "stateMutability": "nonpayable",
      "type": "function"
    },
    {
      "inputs": [],
      "name": "closeExpiredRequest",
      "outputs": [],
      "stateMutability": "nonpayable",
      "type": "function"
    },
    {
      "inputs": [
        {
          "internalType": "string",
          "name": "description",
          "type": "string"
        },
        {
          "internalType": "string[]",
          "name": "formatsAccepted",
          "type": "string[]"
        },
        {
          "internalType": "uint256",
          "name": "expirationDate",
          "type": "uint256"
        }
      ],
      "name": "createRequest",
      "outputs": [],
      "stateMutability": "payable",
      "type": "function"
    },
    {
      "inputs": [],
      "name": "getMyRequests",
      "outputs": [
        {
          "components": [
            {
              "internalType": "uint256",
              "name": "id",
              "type": "uint256"
            },
            {
              "internalType": "string",
              "name": "description",
              "type": "string"
            },
            {
              "internalType": "bool",
              "name": "isDone",
              "type": "bool"
            },
            {
              "internalType": "address",
              "name": "author",
              "type": "address"
            },
            {
              "internalType": "address",
              "name": "winner",
              "type": "address"
            },
            {
              "internalType": "string[]",
              "name": "formatsAccepted",
              "type": "string[]"
            },
            {
              "internalType": "uint256",
              "name": "reward",
              "type": "uint256"
            },
            {
              "internalType": "bool",
              "name": "returnReward",
              "type": "bool"
            },
            {
              "internalType": "uint256",
              "name": "creationDate",
              "type": "uint256"
            },
            {
              "internalType": "uint256",
              "name": "expirationDate",
              "type": "uint256"
            },
            {
              "internalType": "uint256",
              "name": "filesCount",
              "type": "uint256"
            },
            {
              "internalType": "uint256",
              "name": "winnerFile",
              "type": "uint256"
            }
          ],
          "internalType": "struct FileSolvers.Request[]",
          "name": "",
          "type": "tuple[]"
        }
      ],
      "stateMutability": "view",
      "type": "function"
    },
    {
      "inputs": [
        {
          "internalType": "uint256",
          "name": "id",
          "type": "uint256"
        }
      ],
      "name": "getRequest",
      "outputs": [
        {
          "components": [
            {
              "internalType": "uint256",
              "name": "id",
              "type": "uint256"
            },
            {
              "internalType": "string",
              "name": "description",
              "type": "string"
            },
            {
              "internalType": "bool",
              "name": "isDone",
              "type": "bool"
            },
            {
              "internalType": "address",
              "name": "author",
              "type": "address"
            },
            {
              "internalType": "address",
              "name": "winner",
              "type": "address"
            },
            {
              "internalType": "string[]",
              "name": "formatsAccepted",
              "type": "string[]"
            },
            {
              "internalType": "uint256",
              "name": "reward",
              "type": "uint256"
            },
            {
              "internalType": "bool",
              "name": "returnReward",
              "type": "bool"
            },
            {
              "internalType": "uint256",
              "name": "creationDate",
              "type": "uint256"
            },
            {
              "internalType": "uint256",
              "name": "expirationDate",
              "type": "uint256"
            },
            {
              "internalType": "uint256",
              "name": "filesCount",
              "type": "uint256"
            },
            {
              "internalType": "uint256",
              "name": "winnerFile",
              "type": "uint256"
            }
          ],
          "internalType": "struct FileSolvers.Request",
          "name": "",
          "type": "tuple"
        },
        {
          "components": [
            {
              "internalType": "uint256",
              "name": "id",
              "type": "uint256"
            },
            {
              "internalType": "string",
              "name": "fileName",
              "type": "string"
            },
            {
              "internalType": "string",
              "name": "format",
              "type": "string"
            },
            {
              "internalType": "string",
              "name": "description",
              "type": "string"
            },
            {
              "internalType": "string",
              "name": "cid",
              "type": "string"
            },
            {
              "internalType": "address",
              "name": "author",
              "type": "address"
            },
            {
              "internalType": "uint256",
              "name": "creationDate",
              "type": "uint256"
            }
          ],
          "internalType": "struct FileSolvers.File[]",
          "name": "",
          "type": "tuple[]"
        }
      ],
      "stateMutability": "view",
      "type": "function"
    },
    {
      "inputs": [],
      "name": "getRequests",
      "outputs": [
        {
          "components": [
            {
              "internalType": "uint256",
              "name": "id",
              "type": "uint256"
            },
            {
              "internalType": "string",
              "name": "description",
              "type": "string"
            },
            {
              "internalType": "bool",
              "name": "isDone",
              "type": "bool"
            },
            {
              "internalType": "address",
              "name": "author",
              "type": "address"
            },
            {
              "internalType": "address",
              "name": "winner",
              "type": "address"
            },
            {
              "internalType": "string[]",
              "name": "formatsAccepted",
              "type": "string[]"
            },
            {
              "internalType": "uint256",
              "name": "reward",
              "type": "uint256"
            },
            {
              "internalType": "bool",
              "name": "returnReward",
              "type": "bool"
            },
            {
              "internalType": "uint256",
              "name": "creationDate",
              "type": "uint256"
            },
            {
              "internalType": "uint256",
              "name": "expirationDate",
              "type": "uint256"
            },
            {
              "internalType": "uint256",
              "name": "filesCount",
              "type": "uint256"
            },
            {
              "internalType": "uint256",
              "name": "winnerFile",
              "type": "uint256"
            }
          ],
          "internalType": "struct FileSolvers.Request[]",
          "name": "",
          "type": "tuple[]"
        }
      ],
      "stateMutability": "view",
      "type": "function"
    },
    {
      "inputs": [
        {
          "internalType": "uint256",
          "name": "id",
          "type": "uint256"
        },
        {
          "internalType": "string",
          "name": "fileName",
          "type": "string"
        },
        {
          "internalType": "string",
          "name": "format",
          "type": "string"
        },
        {
          "internalType": "string",
          "name": "description",
          "type": "string"
        },
        {
          "internalType": "string",
          "name": "cid",
          "type": "string"
        }
      ],
      "name": "sendFileToRequest",
      "outputs": [],
      "stateMutability": "nonpayable",
      "type": "function"
    },
    {
      "inputs": [
        {
          "internalType": "uint256",
          "name": "id",
          "type": "uint256"
        }
      ],
      "name": "withdrawReward",
      "outputs": [],
      "stateMutability": "nonpayable",
      "type": "function"
    },
    {
      "stateMutability": "payable",
      "type": "receive"
    }
  ],
  "bytecode": "0x60806040523480156200001157600080fd5b506200002e678a34c6d95fd0355560c01b6200009160201b60201c565b6200004a6752dd61a30880098660c01b6200009160201b60201c565b33600660006101000a81548173ffffffffffffffffffffffffffffffffffffffff021916908373ffffffffffffffffffffffffffffffffffffffff16021790555062000094565b50565b61538380620000a46000396000f3fe60806040526004361061007f5760003560e01c806370b91da81161004e57806370b91da8146101335780638813ce121461014a57806391eace8b14610175578063c58343ef146101a057610086565b806309d72e351461009c5780632a48747a146100b8578063523a3f08146100e1578063588ee1241461010a57610086565b3661008657005b61009a67d11d35a6dcaf872d60c01b6101de565b005b6100b660048036038101906100b191906143b3565b6101e1565b005b3480156100c457600080fd5b506100df60048036038101906100da9190614448565b610723565b005b3480156100ed57600080fd5b5061010860048036038101906101039190614544565b6113a0565b005b34801561011657600080fd5b50610131600480360381019061012c9190614571565b611ba2565b005b34801561013f57600080fd5b50610148612696565b005b34801561015657600080fd5b5061015f6127e0565b60405161016c919061493b565b60405180910390f35b34801561018157600080fd5b5061018a612bc9565b604051610197919061493b565b60405180910390f35b3480156101ac57600080fd5b506101c760048036038101906101c29190614544565b613252565b6040516101d5929190614bdb565b60405180910390f35b50565b6101f5672a3ee5c5d349a7f360c01b6101de565b61020967b7e750b310e7789460c01b6101de565b61021d674babf5e3c33a64b660c01b6101de565b6000349050610236673946c51132d513cf60c01b6101de565b61024a67ada764fde33e825460c01b6101de565b600081116102985761026667ef9f6174d5df656060c01b6101de565b6040517f820bf1e500000000000000000000000000000000000000000000000000000000815260040160405180910390fd5b6102ac67145ec74ae645896160c01b6101de565b6102c06707f36de5655ec71960c01b6101de565b6102d46716b451d24a3e93fa60c01b6101de565b60008484905003610325576102f3677316069e794e64c060c01b6101de565b6040517fd45f010c00000000000000000000000000000000000000000000000000000000815260040160405180910390fd5b61033967fb164147433c476060c01b6101de565b61034d67dfcf1ff1d2e373a560c01b6101de565b6103616797993bdb21097c6360c01b6101de565b600086869050036103b2576103806709063c280abb190760c01b6101de565b6040517fd45f010c00000000000000000000000000000000000000000000000000000000815260040160405180910390fd5b6103c6672193c1e4147a716f60c01b6101de565b6103da67e331af935d1af33360c01b6101de565b6103ee67e5fe470f7305c11260c01b6101de565b60004290506104076798cae712952a9cb460c01b6101de565b61041b67635b0b89e4d9bf9860c01b6101de565b80831161046857610436672aaea4fa80b8af1860c01b6101de565b6040517ffef5a96000000000000000000000000000000000000000000000000000000000815260040160405180910390fd5b61047c670f0cd7fe8120efe760c01b6101de565b610490679850b05b77c8c03260c01b6101de565b6104a467983308f50c67197860c01b6101de565b6000604051806101800160405280600054815260200189898080601f016020809104026020016040519081016040528093929190818152602001838380828437600081840152601f19601f8201169050808301925050505050505081526020016000151581526020013373ffffffffffffffffffffffffffffffffffffffff168152602001600073ffffffffffffffffffffffffffffffffffffffff1681526020018787906105539190614df5565b8152602001848152602001600015158152602001838152602001858152602001600081526020016000815250905061059567d52690e022ae8f8d60c01b6101de565b8060026000805481526020019081526020016000206000820151816000015560208201518160010190816105c99190615016565b5060408201518160020160006101000a81548160ff02191690831515021790555060608201518160020160016101000a81548173ffffffffffffffffffffffffffffffffffffffff021916908373ffffffffffffffffffffffffffffffffffffffff16021790555060808201518160030160006101000a81548173ffffffffffffffffffffffffffffffffffffffff021916908373ffffffffffffffffffffffffffffffffffffffff16021790555060a08201518160040190805190602001906106949291906140f0565b5060c0820151816005015560e08201518160060160006101000a81548160ff02191690831515021790555061010082015181600701556101208201518160080155610140820151816009015561016082015181600a015590505061070267d1bffe13927fe1eb60c01b6101de565b60008081548092919061071490615117565b91905055505050505050505050565b61073767361b77fbd19f148b60c01b6101de565b8861074c67c7c39e994133332060c01b6101de565b61076067c11a85ec3b4ce59c60c01b6101de565b610774677964981e4c91cf9060c01b6101de565b60005481106107c35761079167166f9c91297879c660c01b6101de565b6040517f4b13b31e00000000000000000000000000000000000000000000000000000000815260040160405180910390fd5b6107d7671da9204f4a4459b660c01b6101de565b6107eb67a3e5072a28af70c960c01b6101de565b6107ff67fabebd64ef5743fa60c01b6101de565b61081367ecec9f5a1703dcff60c01b6101de565b6108276770fd5048ae24c52460c01b6101de565b61083b67e2e14f3ea27424dc60c01b6101de565b6000600260008c8152602001908152602001600020604051806101800160405290816000820154815260200160018201805461087690614e39565b80601f01602080910402602001604051908101604052809291908181526020018280546108a290614e39565b80156108ef5780601f106108c4576101008083540402835291602001916108ef565b820191906000526020600020905b8154815290600101906020018083116108d257829003601f168201915b505050505081526020016002820160009054906101000a900460ff161515151581526020016002820160019054906101000a900473ffffffffffffffffffffffffffffffffffffffff1673ffffffffffffffffffffffffffffffffffffffff1673ffffffffffffffffffffffffffffffffffffffff1681526020016003820160009054906101000a900473ffffffffffffffffffffffffffffffffffffffff1673ffffffffffffffffffffffffffffffffffffffff1673ffffffffffffffffffffffffffffffffffffffff16815260200160048201805480602002602001604051908101604052809291908181526020016000905b82821015610a90578382906000526020600020018054610a0390614e39565b80601f0160208091040260200160405190810160405280929190818152602001828054610a2f90614e39565b8015610a7c5780601f10610a5157610100808354040283529160200191610a7c565b820191906000526020600020905b815481529060010190602001808311610a5f57829003601f168201915b5050505050815260200190600101906109e4565b505050508152602001600582015481526020016006820160009054906101000a900460ff16151515158152602001600782015481526020016008820154815260200160098201548152602001600a820154815250509050610afb6780ca10db41d528c360c01b6101de565b610b0f6707ddc53d10d5b3a560c01b6101de565b806040015115610b5f57610b2d677f95bc4ca0167f5560c01b6101de565b6040517f6155e82400000000000000000000000000000000000000000000000000000000815260040160405180910390fd5b610b736725bf2a23f2db39fc60c01b6101de565b610b8767cb70ae7581ce8bc860c01b6101de565b610b9b67d2a16a17c71ed67060c01b6101de565b60008a8a905003610bec57610bba67380e29af6a26d83260c01b6101de565b6040517fd45f010c00000000000000000000000000000000000000000000000000000000815260040160405180910390fd5b610c0067f0a1bce98345a89e60c01b6101de565b610c14677a3e3ea6f695c58660c01b6101de565b610c28679523486c7366ebae60c01b6101de565b60008484905003610c7957610c4767c068ead7c1db37dc60c01b6101de565b6040517fd45f010c00000000000000000000000000000000000000000000000000000000815260040160405180910390fd5b610c8d67857d0e0c737f150860c01b6101de565b610ca167e6f1d8b32f1ff0ea60c01b6101de565b610cb5676e4169d66f19a10f60c01b6101de565b60008686905003610d0657610cd467468d8282a78a912160c01b6101de565b6040517fd45f010c00000000000000000000000000000000000000000000000000000000815260040160405180910390fd5b610d1a678b3e7e5742b14d3d60c01b6101de565b610d2e67c662f279eadb40cf60c01b6101de565b610d42675d14b193f3d35f1060c01b6101de565b610d4d8b8989613a4f565b610d9757610d65679f989b97ea3f7de060c01b6101de565b6040517fe1e517f800000000000000000000000000000000000000000000000000000000815260040160405180910390fd5b610dab67bb338eb436e6de8160c01b6101de565b610dbf678a79ccb015d1ff0560c01b6101de565b610dd36752e10e331abc06be60c01b6101de565b610e74600460008d8152602001908152602001600020805480602002602001604051908101604052809291908181526020018280548015610e6957602002820191906000526020600020905b8160009054906101000a900473ffffffffffffffffffffffffffffffffffffffff1673ffffffffffffffffffffffffffffffffffffffff1681526020019060010190808311610e1f575b505050505033613fa4565b15610ed357610e8d67a11edcbc7ef38f6d60c01b6101de565b610ea167223d6de5e056cab860c01b6101de565b6040517f22ce1a0700000000000000000000000000000000000000000000000000000000815260040160405180910390fd5b610ee767637c15562f6179b560c01b6101de565b610efb6721db5f9dfc0fe17760c01b6101de565b610f0f6719d450d9eb51bb9660c01b6101de565b8060600151604051602001610f24919061516e565b6040516020818303038152906040528051906020012033604051602001610f4b919061516e565b6040516020818303038152906040528051906020012003610fac57610f7a67e8b55190b433b91f60c01b6101de565b6040517f0fccf1dc00000000000000000000000000000000000000000000000000000000815260040160405180910390fd5b610fc067e3e88674d332461260c01b6101de565b610fd4676438affa1647760260c01b6101de565b610fe8671d6e3fe3cfdd78a360c01b6101de565b60006040518060e0016040528060015481526020018c8c8080601f016020809104026020016040519081016040528093929190818152602001838380828437600081840152601f19601f8201169050808301925050505050505081526020018a8a8080601f016020809104026020016040519081016040528093929190818152602001838380828437600081840152601f19601f82011690508083019250505050505050815260200188888080601f016020809104026020016040519081016040528093929190818152602001838380828437600081840152601f19601f82011690508083019250505050505050815260200186868080601f016020809104026020016040519081016040528093929190818152602001838380828437600081840152601f19601f8201169050808301925050505050505081526020013373ffffffffffffffffffffffffffffffffffffffff16815260200142815250905061115a66899d9319ced88860c01b6101de565b8060036000600154815260200190815260200160002060008201518160000155602082015181600101908161118f9190615016565b5060408201518160020190816111a59190615016565b5060608201518160030190816111bb9190615016565b5060808201518160040190816111d19190615016565b5060a08201518160050160006101000a81548173ffffffffffffffffffffffffffffffffffffffff021916908373ffffffffffffffffffffffffffffffffffffffff16021790555060c0820151816006015590505061123a67f6dcd45aa55917b160c01b6101de565b61124e67fc2f7dcff5f980af60c01b6101de565b600460008d8152602001908152602001600020339080600181540180825580915050600190039060005260206000200160009091909190916101000a81548173ffffffffffffffffffffffffffffffffffffffff021916908373ffffffffffffffffffffffffffffffffffffffff1602179055506112d6671900e1ed4a9d883960c01b6101de565b6112ea676f954f382062c7f860c01b6101de565b600560008d8152602001908152602001600020600154908060018154018082558091505060019003906000526020600020016000909190919091505561133a67eeca9583ce61ed7160c01b6101de565b600260008d8152602001908152602001600020600901600081548092919061136190615117565b919050555061137a67792b921ec9c28b2a60c01b6101de565b6001600081548092919061138d90615117565b9190505550505050505050505050505050565b6113b46737d0ce963e3a56d960c01b6101de565b806113c967c7c39e994133332060c01b6101de565b6113dd67c11a85ec3b4ce59c60c01b6101de565b6113f1677964981e4c91cf9060c01b6101de565b60005481106114405761140e67166f9c91297879c660c01b6101de565b6040517f4b13b31e00000000000000000000000000000000000000000000000000000000815260040160405180910390fd5b611454671da9204f4a4459b660c01b6101de565b61146867a3e5072a28af70c960c01b6101de565b61147c67ce733ea53416837360c01b6101de565b61149067e30e3a96a127e0b760c01b6101de565b6114a4670138a923f0e376fa60c01b6101de565b6114b867363bed8e5e772fac60c01b6101de565b60006002600084815260200190815260200160002060405180610180016040529081600082015481526020016001820180546114f390614e39565b80601f016020809104026020016040519081016040528092919081815260200182805461151f90614e39565b801561156c5780601f106115415761010080835404028352916020019161156c565b820191906000526020600020905b81548152906001019060200180831161154f57829003601f168201915b505050505081526020016002820160009054906101000a900460ff161515151581526020016002820160019054906101000a900473ffffffffffffffffffffffffffffffffffffffff1673ffffffffffffffffffffffffffffffffffffffff1673ffffffffffffffffffffffffffffffffffffffff1681526020016003820160009054906101000a900473ffffffffffffffffffffffffffffffffffffffff1673ffffffffffffffffffffffffffffffffffffffff1673ffffffffffffffffffffffffffffffffffffffff16815260200160048201805480602002602001604051908101604052809291908181526020016000905b8282101561170d57838290600052602060002001805461168090614e39565b80601f01602080910402602001604051908101604052809291908181526020018280546116ac90614e39565b80156116f95780601f106116ce576101008083540402835291602001916116f9565b820191906000526020600020905b8154815290600101906020018083116116dc57829003601f168201915b505050505081526020019060010190611661565b505050508152602001600582015481526020016006820160009054906101000a900460ff16151515158152602001600782015481526020016008820154815260200160098201548152602001600a82015481525050905061177867e357d4be6ee358fc60c01b6101de565b61178c67aba580e2983d713460c01b6101de565b80604001516117db576117a967d2deb4a7604673d660c01b6101de565b6040517f5492ac8200000000000000000000000000000000000000000000000000000000815260040160405180910390fd5b6117ef67068fe7ef6a5cba1b60c01b6101de565b61180367a4619d164093712a60c01b6101de565b61181767c582e09080105d5660c01b6101de565b8060e00151156118675761183567a3f12a79d450ca7a60c01b6101de565b6040517fa727014000000000000000000000000000000000000000000000000000000000815260040160405180910390fd5b61187b6755fc56bb5e017f4e60c01b6101de565b61188f67f39f7057ce08fa7d60c01b6101de565b6118a3672d82a65264104b7160c01b6101de565b600081610140015111156118f7576118c5679b1b74fb58c8536f60c01b6101de565b6040517f924fa5a900000000000000000000000000000000000000000000000000000000815260040160405180910390fd5b61190b67dfae99f588649f4a60c01b6101de565b61191f67b548462f4443a65060c01b6101de565b61193367ae68bb4f4884717860c01b6101de565b8060600151604051602001611948919061516e565b604051602081830303815290604052805190602001203360405160200161196f919061516e565b6040516020818303038152906040528051906020012014158015611a015750600660009054906101000a900473ffffffffffffffffffffffffffffffffffffffff166040516020016119c1919061516e565b60405160208183030381529060405280519060200120336040516020016119e8919061516e565b6040516020818303038152906040528051906020012014155b15611a4c57611a1a6739f2e5c4433c0abc60c01b6101de565b6040517f650ea3e400000000000000000000000000000000000000000000000000000000815260040160405180910390fd5b611a60673f2d4dc3141d51a960c01b6101de565b611a74673c86c6e64abfecae60c01b6101de565b60016002600085815260200190815260200160002060060160006101000a81548160ff021916908315150217905550611ab767feaf95a45455359860c01b6101de565b611acb6790fb95e573f1fe2c60c01b6101de565b6000816060015173ffffffffffffffffffffffffffffffffffffffff166108fc8360c001519081150290604051600060405180830381858888f193505050509050611b2067aa966f6390ddd28e60c01b6101de565b611b346708db980fef72410a60c01b6101de565b611b4867e54680682356e3b860c01b6101de565b80611b88576040517f08c379a0000000000000000000000000000000000000000000000000000000008152600401611b7f906151e6565b60405180910390fd5b611b9c67b0823bfb208ce10560c01b6101de565b50505050565b611bb667a74da701495391ba60c01b6101de565b81611bcb67c7c39e994133332060c01b6101de565b611bdf67c11a85ec3b4ce59c60c01b6101de565b611bf3677964981e4c91cf9060c01b6101de565b6000548110611c4257611c1067166f9c91297879c660c01b6101de565b6040517f4b13b31e00000000000000000000000000000000000000000000000000000000815260040160405180910390fd5b611c56671da9204f4a4459b660c01b6101de565b611c6a67a3e5072a28af70c960c01b6101de565b611c7e67b83559c5f584092b60c01b6101de565b611c92671bbebb6be1791dee60c01b6101de565b611ca667cc35e6ea4299338a60c01b6101de565b611cba672d7f72f0f663f93b60c01b6101de565b6000600260008581526020019081526020016000206040518061018001604052908160008201548152602001600182018054611cf590614e39565b80601f0160208091040260200160405190810160405280929190818152602001828054611d2190614e39565b8015611d6e5780601f10611d4357610100808354040283529160200191611d6e565b820191906000526020600020905b815481529060010190602001808311611d5157829003601f168201915b505050505081526020016002820160009054906101000a900460ff161515151581526020016002820160019054906101000a900473ffffffffffffffffffffffffffffffffffffffff1673ffffffffffffffffffffffffffffffffffffffff1673ffffffffffffffffffffffffffffffffffffffff1681526020016003820160009054906101000a900473ffffffffffffffffffffffffffffffffffffffff1673ffffffffffffffffffffffffffffffffffffffff1673ffffffffffffffffffffffffffffffffffffffff16815260200160048201805480602002602001604051908101604052809291908181526020016000905b82821015611f0f578382906000526020600020018054611e8290614e39565b80601f0160208091040260200160405190810160405280929190818152602001828054611eae90614e39565b8015611efb5780601f10611ed057610100808354040283529160200191611efb565b820191906000526020600020905b815481529060010190602001808311611ede57829003601f168201915b505050505081526020019060010190611e63565b505050508152602001600582015481526020016006820160009054906101000a900460ff16151515158152602001600782015481526020016008820154815260200160098201548152602001600a820154815250509050611f7a67eb8581c65bdade6c60c01b6101de565b611f8e67d5af866bf5222ffb60c01b6101de565b8060400151611fdd57611fab672c1455888ff8eda860c01b6101de565b6040517f5492ac8200000000000000000000000000000000000000000000000000000000815260040160405180910390fd5b611ff167ba451a1caf239d5a60c01b6101de565b61200567da7deffacd7c7b6c60c01b6101de565b61201967d333d4844f54db4960c01b6101de565b60008161014001510361206c5761203a673c6d70e0c13c139e60c01b6101de565b6040517f8b6a473000000000000000000000000000000000000000000000000000000000815260040160405180910390fd5b61208067f2d10d395198741b60c01b6101de565b612094670134f78c554e5cae60c01b6101de565b6120a8674dfb6725fd8a185860c01b6101de565b80606001516040516020016120bd919061516e565b60405160208183030381529060405280519060200120336040516020016120e4919061516e565b60405160208183030381529060405280519060200120141580156121765750600660009054906101000a900473ffffffffffffffffffffffffffffffffffffffff16604051602001612136919061516e565b604051602081830303815290604052805190602001203360405160200161215d919061516e565b6040516020818303038152906040528051906020012014155b156121c15761218f6756657d25d47a399a60c01b6101de565b6040517f650ea3e400000000000000000000000000000000000000000000000000000000815260040160405180910390fd5b6121d567388baa61dabe11c560c01b6101de565b6121e967cc5501d127b2d70760c01b6101de565b6121fd67b6c61f07ef9861f360c01b6101de565b600073ffffffffffffffffffffffffffffffffffffffff16816080015173ffffffffffffffffffffffffffffffffffffffff161461227b57612249674d2d6eb7a25d80bf60c01b6101de565b6040517fdbe8a6ad00000000000000000000000000000000000000000000000000000000815260040160405180910390fd5b61228f67447a6e66561dd43360c01b6101de565b6122a367c6fd322a5727fdf060c01b6101de565b6122b767bbf538a3fa93600c60c01b6101de565b6001548310612306576122d4670b5c37743915551560c01b6101de565b6040517fed20d76400000000000000000000000000000000000000000000000000000000815260040160405180910390fd5b61231a6719cb7b71b95e37ec60c01b6101de565b61232e67a9e0ce5a248214e860c01b6101de565b61234267347a9f7daebe6a6a60c01b6101de565b600061235867889af4be379be85b60c01b6101de565b61236c67310bb5dd8ee4516b60c01b6101de565b60005b6005600087815260200190815260200160002080549050811015612444576123a1679edaccfc2343d13860c01b6101de565b6123b5679f2dc4a5fae3e79260c01b6101de565b846005600088815260200190815260200160002082815481106123db576123da615206565b5b90600052602060002001540361241c576123ff679922b44d23a3fa5160c01b6101de565b61241367a6bd47dbda4bae9c60c01b6101de565b60019150612431565b61243067464e311af999466f60c01b6101de565b5b808061243c90615117565b91505061236f565b506124596712bc2cf8c879f51660c01b6101de565b61246d676efbe603bf8bb8ee60c01b6101de565b806124b85761248667a87490be08ca1fbe60c01b6101de565b6040517fed20d76400000000000000000000000000000000000000000000000000000000815260040160405180910390fd5b6124cc673a38166b1a259a2060c01b6101de565b6124e067b9b765bafe86c5e360c01b6101de565b6124f467b3fee3d58d0b3df660c01b6101de565b60006003600086815260200190815260200160002060050160009054906101000a900473ffffffffffffffffffffffffffffffffffffffff16905061254367dd061ffbbdfb1c5560c01b6101de565b806002600088815260200190815260200160002060030160006101000a81548173ffffffffffffffffffffffffffffffffffffffff021916908373ffffffffffffffffffffffffffffffffffffffff1602179055506125ac6768c8c7faee911e3d60c01b6101de565b6125c067ad847851eb7cdfe360c01b6101de565b60008173ffffffffffffffffffffffffffffffffffffffff166108fc8560c001519081150290604051600060405180830381858888f193505050509050612611673b4f9eac9ca0795660c01b6101de565b61262567adbcc3dfbdbd0a0d60c01b6101de565b61263967d3192eca523ef1eb60c01b6101de565b80612679576040517f08c379a000000000000000000000000000000000000000000000000000000000815260040161267090615281565b60405180910390fd5b61268d676b180d1ada1cb1db60c01b6101de565b50505050505050565b6126aa6764b1fb69aba74c3c60c01b6101de565b6126be677bd1993d040b01ff60c01b6101de565b6126d2675d6594d5592eb72a60c01b6101de565b60005b6000548110156127dd576126f3678334a85b9c449d2960c01b6101de565b612707674d33f5702ba0463160c01b6101de565b600015156002600083815260200190815260200160002060020160009054906101000a900460ff161515148015612754575042600260008381526020019081526020016000206008015411155b156127b55761276d6711a0de3b5dd56a9160c01b6101de565b612781670435a348f0a2750460c01b6101de565b60016002600083815260200190815260200160002060020160006101000a81548160ff0219169083151502179055506127ca565b6127c967040f4646f1ccbb5f60c01b6101de565b5b80806127d590615117565b9150506126d5565b50565b60606127f667dec63625bdf816fb60c01b6101de565b61280a6799ba6e915d867cc660c01b6101de565b61281e678a33c3b4ad65fa3060c01b6101de565b6000805467ffffffffffffffff81111561283b5761283a614c12565b5b60405190808252806020026020018201604052801561287457816020015b612861614149565b8152602001906001900390816128595790505b50905061288b678b482a2df0e349a460c01b6101de565b61289f673b4510ca50e706f560c01b6101de565b60005b600054811015612b99576128c067c4b1db3119e0762e60c01b6101de565b6002600082815260200190815260200160002060405180610180016040529081600082015481526020016001820180546128f990614e39565b80601f016020809104026020016040519081016040528092919081815260200182805461292590614e39565b80156129725780601f1061294757610100808354040283529160200191612972565b820191906000526020600020905b81548152906001019060200180831161295557829003601f168201915b505050505081526020016002820160009054906101000a900460ff161515151581526020016002820160019054906101000a900473ffffffffffffffffffffffffffffffffffffffff1673ffffffffffffffffffffffffffffffffffffffff1673ffffffffffffffffffffffffffffffffffffffff1681526020016003820160009054906101000a900473ffffffffffffffffffffffffffffffffffffffff1673ffffffffffffffffffffffffffffffffffffffff1673ffffffffffffffffffffffffffffffffffffffff16815260200160048201805480602002602001604051908101604052809291908181526020016000905b82821015612b13578382906000526020600020018054612a8690614e39565b80601f0160208091040260200160405190810160405280929190818152602001828054612ab290614e39565b8015612aff5780601f10612ad457610100808354040283529160200191612aff565b820191906000526020600020905b815481529060010190602001808311612ae257829003601f168201915b505050505081526020019060010190612a67565b505050508152602001600582015481526020016006820160009054906101000a900460ff16151515158152602001600782015481526020016008820154815260200160098201548152602001600a82015481525050828281518110612b7b57612b7a615206565b5b60200260200101819052508080612b9190615117565b9150506128a2565b50612bae67f339570d5b00341660c01b6101de565b612bc2677131338eb29a3d9660c01b6101de565b8091505090565b6060612bdf679fd6a00c982cfedb60c01b6101de565b612bf367f154116887e6356b60c01b6101de565b612c076740f0ddad3c34b3ae60c01b6101de565b6000612c1d677bd47e8a9d954a2560c01b6101de565b612c3167408ec8eb20606ca760c01b6101de565b60005b600054811015612d5257612c5267fbcb47d5e7dd89db60c01b6101de565b612c6667fe8472bd885a0e8b60c01b6101de565b6002600082815260200190815260200160002060020160019054906101000a900473ffffffffffffffffffffffffffffffffffffffff16604051602001612cad919061516e565b6040516020818303038152906040528051906020012033604051602001612cd4919061516e565b6040516020818303038152906040528051906020012003612d2a57612d036776c38e63150e6b4a60c01b6101de565b612d17675612e076151debcf60c01b6101de565b8180612d2290615117565b925050612d3f565b612d3e670f5e51ae6aed560260c01b6101de565b5b8080612d4a90615117565b915050612c34565b50612d6767fd7a0de50abea0f360c01b6101de565b612d7b67d2d0a3f378cd0edb60c01b6101de565b60008167ffffffffffffffff811115612d9757612d96614c12565b5b604051908082528060200260200182016040528015612dd057816020015b612dbd614149565b815260200190600190039081612db55790505b509050612de7679b074ad5420a42ae60c01b6101de565b612dfb677312ba46cc78460b60c01b6101de565b6000612e116706d474e8443697c360c01b6101de565b612e2567d2b43f828b6b553b60c01b6101de565b60005b60005481101561322057612e466762eb45cdf3a28f2b60c01b6101de565b612e5a6780da59ef1d09ade660c01b6101de565b6002600082815260200190815260200160002060020160019054906101000a900473ffffffffffffffffffffffffffffffffffffffff16604051602001612ea1919061516e565b6040516020818303038152906040528051906020012033604051602001612ec8919061516e565b60405160208183030381529060405280519060200120036131f857612ef7674a34ec198463a72760c01b6101de565b612f0b67a2d8b7a5b74fe44f60c01b6101de565b600260008281526020019081526020016000206040518061018001604052908160008201548152602001600182018054612f4490614e39565b80601f0160208091040260200160405190810160405280929190818152602001828054612f7090614e39565b8015612fbd5780601f10612f9257610100808354040283529160200191612fbd565b820191906000526020600020905b815481529060010190602001808311612fa057829003601f168201915b505050505081526020016002820160009054906101000a900460ff161515151581526020016002820160019054906101000a900473ffffffffffffffffffffffffffffffffffffffff1673ffffffffffffffffffffffffffffffffffffffff1673ffffffffffffffffffffffffffffffffffffffff1681526020016003820160009054906101000a900473ffffffffffffffffffffffffffffffffffffffff1673ffffffffffffffffffffffffffffffffffffffff1673ffffffffffffffffffffffffffffffffffffffff16815260200160048201805480602002602001604051908101604052809291908181526020016000905b8282101561315e5783829060005260206000200180546130d190614e39565b80601f01602080910402602001604051908101604052809291908181526020018280546130fd90614e39565b801561314a5780601f1061311f5761010080835404028352916020019161314a565b820191906000526020600020905b81548152906001019060200180831161312d57829003601f168201915b5050505050815260200190600101906130b2565b505050508152602001600582015481526020016006820160009054906101000a900460ff16151515158152602001600782015481526020016008820154815260200160098201548152602001600a820154815250508383815181106131c6576131c5615206565b5b60200260200101819052506131e567cef2d8ad71e5ca8360c01b6101de565b81806131f090615117565b92505061320d565b61320c6738d06791e83a6c2660c01b6101de565b5b808061321890615117565b915050612e28565b506132356701d50fbc49155d4560c01b6101de565b613249675ae1e2d19302c7aa60c01b6101de565b81935050505090565b61325a614149565b606061327067ce2630c0dd808bd060c01b6101de565b8261328567c7c39e994133332060c01b6101de565b61329967c11a85ec3b4ce59c60c01b6101de565b6132ad677964981e4c91cf9060c01b6101de565b60005481106132fc576132ca67166f9c91297879c660c01b6101de565b6040517f4b13b31e00000000000000000000000000000000000000000000000000000000815260040160405180910390fd5b613310671da9204f4a4459b660c01b6101de565b61332467a3e5072a28af70c960c01b6101de565b6133386710be67dcf5fd4c8760c01b6101de565b61334c671f197196db0b4f7a60c01b6101de565b61336067997761082875d8e260c01b6101de565b613374674adf420aabef9cbf60c01b6101de565b6000600560008681526020019081526020016000208054905067ffffffffffffffff8111156133a6576133a5614c12565b5b6040519080825280602002602001820160405280156133df57816020015b6133cc6141da565b8152602001906001900390816133c45790505b5090506133f6674be97a19f6fea32b60c01b6101de565b61340a67e588b598b5a140f860c01b6101de565b60005b600560008781526020019081526020016000208054905081101561376f5761343f670f0ee64ce738ed8060c01b6101de565b6003600060056000898152602001908152602001600020838154811061346857613467615206565b5b906000526020600020015481526020019081526020016000206040518060e0016040529081600082015481526020016001820180546134a690614e39565b80601f01602080910402602001604051908101604052809291908181526020018280546134d290614e39565b801561351f5780601f106134f45761010080835404028352916020019161351f565b820191906000526020600020905b81548152906001019060200180831161350257829003601f168201915b5050505050815260200160028201805461353890614e39565b80601f016020809104026020016040519081016040528092919081815260200182805461356490614e39565b80156135b15780601f10613586576101008083540402835291602001916135b1565b820191906000526020600020905b81548152906001019060200180831161359457829003601f168201915b505050505081526020016003820180546135ca90614e39565b80601f01602080910402602001604051908101604052809291908181526020018280546135f690614e39565b80156136435780601f1061361857610100808354040283529160200191613643565b820191906000526020600020905b81548152906001019060200180831161362657829003601f168201915b5050505050815260200160048201805461365c90614e39565b80601f016020809104026020016040519081016040528092919081815260200182805461368890614e39565b80156136d55780601f106136aa576101008083540402835291602001916136d5565b820191906000526020600020905b8154815290600101906020018083116136b857829003601f168201915b505050505081526020016005820160009054906101000a900473ffffffffffffffffffffffffffffffffffffffff1673ffffffffffffffffffffffffffffffffffffffff1673ffffffffffffffffffffffffffffffffffffffff16815260200160068201548152505082828151811061375157613750615206565b5b6020026020010181905250808061376790615117565b91505061340d565b50613784670113c07f22b3372560c01b6101de565b61379867e09f3652d56222a960c01b6101de565b60026000868152602001908152602001600020818160405180610180016040529081600082015481526020016001820180546137d390614e39565b80601f01602080910402602001604051908101604052809291908181526020018280546137ff90614e39565b801561384c5780601f106138215761010080835404028352916020019161384c565b820191906000526020600020905b81548152906001019060200180831161382f57829003601f168201915b505050505081526020016002820160009054906101000a900460ff161515151581526020016002820160019054906101000a900473ffffffffffffffffffffffffffffffffffffffff1673ffffffffffffffffffffffffffffffffffffffff1673ffffffffffffffffffffffffffffffffffffffff1681526020016003820160009054906101000a900473ffffffffffffffffffffffffffffffffffffffff1673ffffffffffffffffffffffffffffffffffffffff1673ffffffffffffffffffffffffffffffffffffffff16815260200160048201805480602002602001604051908101604052809291908181526020016000905b828210156139ed57838290600052602060002001805461396090614e39565b80601f016020809104026020016040519081016040528092919081815260200182805461398c90614e39565b80156139d95780601f106139ae576101008083540402835291602001916139d9565b820191906000526020600020905b8154815290600101906020018083116139bc57829003601f168201915b505050505081526020019060010190613941565b505050508152602001600582015481526020016006820160009054906101000a900460ff16151515158152602001600782015481526020016008820154815260200160098201548152602001600a820154815250509150935093505050915091565b6000613a6567d412b6dfa3ab5b9060c01b6101de565b83613a7a67c7c39e994133332060c01b6101de565b613a8e67c11a85ec3b4ce59c60c01b6101de565b613aa2677964981e4c91cf9060c01b6101de565b6000548110613af157613abf67166f9c91297879c660c01b6101de565b6040517f4b13b31e00000000000000000000000000000000000000000000000000000000815260040160405180910390fd5b613b05671da9204f4a4459b660c01b6101de565b613b1967a3e5072a28af70c960c01b6101de565b613b2d67dc5f29bc8724521a60c01b6101de565b613b416726700459dee87d3960c01b6101de565b613b55671c21a96368d9dc9a60c01b6101de565b613b696781e84ef738ffb2f560c01b6101de565b6000600260008781526020019081526020016000206040518061018001604052908160008201548152602001600182018054613ba490614e39565b80601f0160208091040260200160405190810160405280929190818152602001828054613bd090614e39565b8015613c1d5780601f10613bf257610100808354040283529160200191613c1d565b820191906000526020600020905b815481529060010190602001808311613c0057829003601f168201915b505050505081526020016002820160009054906101000a900460ff161515151581526020016002820160019054906101000a900473ffffffffffffffffffffffffffffffffffffffff1673ffffffffffffffffffffffffffffffffffffffff1673ffffffffffffffffffffffffffffffffffffffff1681526020016003820160009054906101000a900473ffffffffffffffffffffffffffffffffffffffff1673ffffffffffffffffffffffffffffffffffffffff1673ffffffffffffffffffffffffffffffffffffffff16815260200160048201805480602002602001604051908101604052809291908181526020016000905b82821015613dbe578382906000526020600020018054613d3190614e39565b80601f0160208091040260200160405190810160405280929190818152602001828054613d5d90614e39565b8015613daa5780601f10613d7f57610100808354040283529160200191613daa565b820191906000526020600020905b815481529060010190602001808311613d8d57829003601f168201915b505050505081526020019060010190613d12565b505050508152602001600582015481526020016006820160009054906101000a900460ff16151515158152602001600782015481526020016008820154815260200160098201548152602001600a820154815250509050613e29673c9e2958cf92e6e760c01b6101de565b613e3d676046345cdd3f6f6860c01b6101de565b60008160a001519050613e5a674128b46de3e078a960c01b6101de565b613e6e674f5c9869adcae40a60c01b6101de565b60005b8151811015613f6c57613e8e6745686725b0a78cc660c01b6101de565b613ea267eadabe9e62ec168160c01b6101de565b8686604051602001613eb59291906152ce565b60405160208183030381529060405280519060200120828281518110613ede57613edd615206565b5b6020026020010151604051602001613ef6919061532b565b6040516020818303038152906040528051906020012003613f4557613f2567cb753e0d9cb782c060c01b6101de565b613f39679f2e8315dcec462760c01b6101de565b60019450505050613f9c565b613f5967849ae8f2ebf055cc60c01b6101de565b8080613f6490615117565b915050613e71565b50613f8167e20b5567a7d6568960c01b6101de565b613f9567278df9674aa9f47d60c01b6101de565b6000935050505b509392505050565b6000613fba670e02aad23714a8c860c01b6101de565b613fce67e9d70d2ea030c4d960c01b6101de565b613fe2676567bcad3f47573c60c01b6101de565b60005b83518110156140bc576140026764acbe8bed5e64f960c01b6101de565b6140166771b1396ff1ce325660c01b6101de565b8273ffffffffffffffffffffffffffffffffffffffff168482815181106140405761403f615206565b5b602002602001015173ffffffffffffffffffffffffffffffffffffffff1603614095576140776735b891671539851960c01b6101de565b61408b673d0f1a9e17ea3d8160c01b6101de565b60019150506140ea565b6140a9678c55d9b58bdcaf7560c01b6101de565b80806140b490615117565b915050613fe5565b506140d1673befa19031f3f66660c01b6101de565b6140e5679237a0efde342a0e60c01b6101de565b600090505b92915050565b828054828255906000526020600020908101928215614138579160200282015b828111156141375782518290816141279190615016565b5091602001919060010190614110565b5b509050614145919061422d565b5090565b6040518061018001604052806000815260200160608152602001600015158152602001600073ffffffffffffffffffffffffffffffffffffffff168152602001600073ffffffffffffffffffffffffffffffffffffffff1681526020016060815260200160008152602001600015158152602001600081526020016000815260200160008152602001600081525090565b6040518060e001604052806000815260200160608152602001606081526020016060815260200160608152602001600073ffffffffffffffffffffffffffffffffffffffff168152602001600081525090565b5b8082111561424d57600081816142449190614251565b5060010161422e565b5090565b50805461425d90614e39565b6000825580601f1061426f575061428e565b601f01602090049060005260206000209081019061428d9190614291565b5b50565b5b808211156142aa576000816000905550600101614292565b5090565b6000604051905090565b600080fd5b600080fd5b600080fd5b600080fd5b600080fd5b60008083601f8401126142e7576142e66142c2565b5b8235905067ffffffffffffffff811115614304576143036142c7565b5b6020830191508360018202830111156143205761431f6142cc565b5b9250929050565b60008083601f84011261433d5761433c6142c2565b5b8235905067ffffffffffffffff81111561435a576143596142c7565b5b602083019150836020820283011115614376576143756142cc565b5b9250929050565b6000819050919050565b6143908161437d565b811461439b57600080fd5b50565b6000813590506143ad81614387565b92915050565b6000806000806000606086880312156143cf576143ce6142b8565b5b600086013567ffffffffffffffff8111156143ed576143ec6142bd565b5b6143f9888289016142d1565b9550955050602086013567ffffffffffffffff81111561441c5761441b6142bd565b5b61442888828901614327565b9350935050604061443b8882890161439e565b9150509295509295909350565b600080600080600080600080600060a08a8c03121561446a576144696142b8565b5b60006144788c828d0161439e565b99505060208a013567ffffffffffffffff811115614499576144986142bd565b5b6144a58c828d016142d1565b985098505060408a013567ffffffffffffffff8111156144c8576144c76142bd565b5b6144d48c828d016142d1565b965096505060608a013567ffffffffffffffff8111156144f7576144f66142bd565b5b6145038c828d016142d1565b945094505060808a013567ffffffffffffffff811115614526576145256142bd565b5b6145328c828d016142d1565b92509250509295985092959850929598565b60006020828403121561455a576145596142b8565b5b60006145688482850161439e565b91505092915050565b60008060408385031215614588576145876142b8565b5b60006145968582860161439e565b92505060206145a78582860161439e565b9150509250929050565b600081519050919050565b600082825260208201905092915050565b6000819050602082019050919050565b6145e68161437d565b82525050565b600081519050919050565b600082825260208201905092915050565b60005b8381101561462657808201518184015260208101905061460b565b60008484015250505050565b6000601f19601f8301169050919050565b600061464e826145ec565b61465881856145f7565b9350614668818560208601614608565b61467181614632565b840191505092915050565b60008115159050919050565b6146918161467c565b82525050565b600073ffffffffffffffffffffffffffffffffffffffff82169050919050565b60006146c282614697565b9050919050565b6146d2816146b7565b82525050565b600081519050919050565b600082825260208201905092915050565b6000819050602082019050919050565b60006147108383614643565b905092915050565b6000602082019050919050565b6000614730826146d8565b61473a81856146e3565b93508360208202850161474c856146f4565b8060005b8581101561478857848403895281516147698582614704565b945061477483614718565b925060208a01995050600181019050614750565b50829750879550505050505092915050565b6000610180830160008301516147b360008601826145dd565b50602083015184820360208601526147cb8282614643565b91505060408301516147e06040860182614688565b5060608301516147f360608601826146c9565b50608083015161480660808601826146c9565b5060a083015184820360a086015261481e8282614725565b91505060c083015161483360c08601826145dd565b5060e083015161484660e0860182614688565b5061010083015161485b6101008601826145dd565b506101208301516148706101208601826145dd565b506101408301516148856101408601826145dd565b5061016083015161489a6101608601826145dd565b508091505092915050565b60006148b1838361479a565b905092915050565b6000602082019050919050565b60006148d1826145b1565b6148db81856145bc565b9350836020820285016148ed856145cd565b8060005b85811015614929578484038952815161490a85826148a5565b9450614915836148b9565b925060208a019950506001810190506148f1565b50829750879550505050505092915050565b6000602082019050818103600083015261495581846148c6565b905092915050565b60006101808301600083015161497660008601826145dd565b506020830151848203602086015261498e8282614643565b91505060408301516149a36040860182614688565b5060608301516149b660608601826146c9565b5060808301516149c960808601826146c9565b5060a083015184820360a08601526149e18282614725565b91505060c08301516149f660c08601826145dd565b5060e0830151614a0960e0860182614688565b50610100830151614a1e6101008601826145dd565b50610120830151614a336101208601826145dd565b50610140830151614a486101408601826145dd565b50610160830151614a5d6101608601826145dd565b508091505092915050565b600081519050919050565b600082825260208201905092915050565b6000819050602082019050919050565b600060e083016000830151614aac60008601826145dd565b5060208301518482036020860152614ac48282614643565b91505060408301518482036040860152614ade8282614643565b91505060608301518482036060860152614af88282614643565b91505060808301518482036080860152614b128282614643565b91505060a0830151614b2760a08601826146c9565b5060c0830151614b3a60c08601826145dd565b508091505092915050565b6000614b518383614a94565b905092915050565b6000602082019050919050565b6000614b7182614a68565b614b7b8185614a73565b935083602082028501614b8d85614a84565b8060005b85811015614bc95784840389528151614baa8582614b45565b9450614bb583614b59565b925060208a01995050600181019050614b91565b50829750879550505050505092915050565b60006040820190508181036000830152614bf5818561495d565b90508181036020830152614c098184614b66565b90509392505050565b7f4e487b7100000000000000000000000000000000000000000000000000000000600052604160045260246000fd5b614c4a82614632565b810181811067ffffffffffffffff82111715614c6957614c68614c12565b5b80604052505050565b6000614c7c6142ae565b9050614c888282614c41565b919050565b600067ffffffffffffffff821115614ca857614ca7614c12565b5b602082029050602081019050919050565b600080fd5b600067ffffffffffffffff821115614cd957614cd8614c12565b5b614ce282614632565b9050602081019050919050565b82818337600083830152505050565b6000614d11614d0c84614cbe565b614c72565b905082815260208101848484011115614d2d57614d2c614cb9565b5b614d38848285614cef565b509392505050565b600082601f830112614d5557614d546142c2565b5b8135614d65848260208601614cfe565b91505092915050565b6000614d81614d7c84614c8d565b614c72565b90508083825260208201905060208402830185811115614da457614da36142cc565b5b835b81811015614deb57803567ffffffffffffffff811115614dc957614dc86142c2565b5b808601614dd68982614d40565b85526020850194505050602081019050614da6565b5050509392505050565b6000614e02368484614d6e565b905092915050565b7f4e487b7100000000000000000000000000000000000000000000000000000000600052602260045260246000fd5b60006002820490506001821680614e5157607f821691505b602082108103614e6457614e63614e0a565b5b50919050565b60008190508160005260206000209050919050565b60006020601f8301049050919050565b600082821b905092915050565b600060088302614ecc7fffffffffffffffffffffffffffffffffffffffffffffffffffffffffffffffff82614e8f565b614ed68683614e8f565b95508019841693508086168417925050509392505050565b6000819050919050565b6000614f13614f0e614f098461437d565b614eee565b61437d565b9050919050565b6000819050919050565b614f2d83614ef8565b614f41614f3982614f1a565b848454614e9c565b825550505050565b600090565b614f56614f49565b614f61818484614f24565b505050565b5b81811015614f8557614f7a600082614f4e565b600181019050614f67565b5050565b601f821115614fca57614f9b81614e6a565b614fa484614e7f565b81016020851015614fb3578190505b614fc7614fbf85614e7f565b830182614f66565b50505b505050565b600082821c905092915050565b6000614fed60001984600802614fcf565b1980831691505092915050565b60006150068383614fdc565b9150826002028217905092915050565b61501f826145ec565b67ffffffffffffffff81111561503857615037614c12565b5b6150428254614e39565b61504d828285614f89565b600060209050601f831160018114615080576000841561506e578287015190505b6150788582614ffa565b8655506150e0565b601f19841661508e86614e6a565b60005b828110156150b657848901518255600182019150602085019450602081019050615091565b868310156150d357848901516150cf601f891682614fdc565b8355505b6001600288020188555050505b505050505050565b7f4e487b7100000000000000000000000000000000000000000000000000000000600052601160045260246000fd5b60006151228261437d565b91507fffffffffffffffffffffffffffffffffffffffffffffffffffffffffffffffff8203615154576151536150e8565b5b600182019050919050565b615168816146b7565b82525050565b6000602082019050615183600083018461515f565b92915050565b600082825260208201905092915050565b7f5769746864726177206661696c65640000000000000000000000000000000000600082015250565b60006151d0600f83615189565b91506151db8261519a565b602082019050919050565b600060208201905081810360008301526151ff816151c3565b9050919050565b7f4e487b7100000000000000000000000000000000000000000000000000000000600052603260045260246000fd5b7f53656e6420726577617264206661696c65640000000000000000000000000000600082015250565b600061526b601283615189565b915061527682615235565b602082019050919050565b6000602082019050818103600083015261529a8161525e565b9050919050565b60006152ad8385615189565b93506152ba838584614cef565b6152c383614632565b840190509392505050565b600060208201905081810360008301526152e98184866152a1565b90509392505050565b60006152fd826145ec565b6153078185615189565b9350615317818560208601614608565b61532081614632565b840191505092915050565b6000602082019050818103600083015261534581846152f2565b90509291505056fea26469706673582212201c52b2b2fe1e56ff1c969a039ce9863e3d8238217aa378ab45e0dfe3d08f33b264736f6c63430008120033",
  "linkReferences": {},
  "deployedLinkReferences": {}
}