{
  "_format": "hh-sol-artifact-1",
  "contractName": "FileSolvers",
  "sourceName": "contracts/FileSolvers.sol",
  "abi": [
    {
      "inputs": [],
      "stateMutability": "nonpayable",
      "type": "constructor"
    },
    {
      "inputs": [],
      "name": "MissingParams",
      "type": "error"
    },
    {
      "inputs": [],
      "name": "RequestClosed",
      "type": "error"
    },
    {
      "inputs": [],
      "name": "RequestNotFound",
      "type": "error"
    },
    {
      "inputs": [],
      "name": "WrongExpirationDate",
      "type": "error"
    },
    {
      "inputs": [],
      "name": "WrongFormat",
      "type": "error"
    },
    {
      "inputs": [
        {
          "internalType": "string",
          "name": "description",
          "type": "string"
        },
        {
          "internalType": "string[]",
          "name": "formatsAccepted",
          "type": "string[]"
        },
        {
          "internalType": "uint256",
          "name": "reward",
          "type": "uint256"
        },
        {
          "internalType": "uint256",
          "name": "expirationDate",
          "type": "uint256"
        }
      ],
      "name": "createRequest",
      "outputs": [],
      "stateMutability": "nonpayable",
      "type": "function"
    },
    {
      "inputs": [
        {
          "internalType": "uint256",
          "name": "id",
          "type": "uint256"
        }
      ],
      "name": "getRequest",
      "outputs": [
        {
          "components": [
            {
              "internalType": "uint256",
              "name": "id",
              "type": "uint256"
            },
            {
              "internalType": "string",
              "name": "description",
              "type": "string"
            },
            {
              "internalType": "bool",
              "name": "isDone",
              "type": "bool"
            },
            {
              "internalType": "address",
              "name": "author",
              "type": "address"
            },
            {
              "internalType": "address",
              "name": "winner",
              "type": "address"
            },
            {
              "internalType": "string[]",
              "name": "formatsAccepted",
              "type": "string[]"
            },
            {
              "internalType": "uint256",
              "name": "reward",
              "type": "uint256"
            },
            {
              "internalType": "uint256",
              "name": "creationDate",
              "type": "uint256"
            },
            {
              "internalType": "uint256",
              "name": "expirationDate",
              "type": "uint256"
            },
            {
              "internalType": "uint256",
              "name": "filesCount",
              "type": "uint256"
            },
            {
              "internalType": "uint256",
              "name": "winnerFile",
              "type": "uint256"
            }
          ],
          "internalType": "struct FileSolvers.Request",
          "name": "",
          "type": "tuple"
        }
      ],
      "stateMutability": "view",
      "type": "function"
    },
    {
      "inputs": [],
      "name": "getRequests",
      "outputs": [
        {
          "components": [
            {
              "internalType": "uint256",
              "name": "id",
              "type": "uint256"
            },
            {
              "internalType": "string",
              "name": "description",
              "type": "string"
            },
            {
              "internalType": "bool",
              "name": "isDone",
              "type": "bool"
            },
            {
              "internalType": "address",
              "name": "author",
              "type": "address"
            },
            {
              "internalType": "address",
              "name": "winner",
              "type": "address"
            },
            {
              "internalType": "string[]",
              "name": "formatsAccepted",
              "type": "string[]"
            },
            {
              "internalType": "uint256",
              "name": "reward",
              "type": "uint256"
            },
            {
              "internalType": "uint256",
              "name": "creationDate",
              "type": "uint256"
            },
            {
              "internalType": "uint256",
              "name": "expirationDate",
              "type": "uint256"
            },
            {
              "internalType": "uint256",
              "name": "filesCount",
              "type": "uint256"
            },
            {
              "internalType": "uint256",
              "name": "winnerFile",
              "type": "uint256"
            }
          ],
          "internalType": "struct FileSolvers.Request[]",
          "name": "",
          "type": "tuple[]"
        }
      ],
      "stateMutability": "view",
      "type": "function"
    },
    {
      "inputs": [
        {
          "internalType": "uint256",
          "name": "id",
          "type": "uint256"
        },
        {
          "internalType": "string",
          "name": "fileName",
          "type": "string"
        },
        {
          "internalType": "string",
          "name": "format",
          "type": "string"
        },
        {
          "internalType": "string",
          "name": "description",
          "type": "string"
        },
        {
          "internalType": "string",
          "name": "cid",
          "type": "string"
        }
      ],
      "name": "sendFileToRequest",
      "outputs": [],
      "stateMutability": "nonpayable",
      "type": "function"
    }
  ],
  "bytecode": "0x60806040523480156200001157600080fd5b506200002e674a34ec198463a72760c01b6200009160201b60201c565b6200004a67a2d8b7a5b74fe44f60c01b6200009160201b60201c565b33600660006101000a81548173ffffffffffffffffffffffffffffffffffffffff021916908373ffffffffffffffffffffffffffffffffffffffff16021790555062000094565b50565b612aa480620000a46000396000f3fe608060405234801561001057600080fd5b506004361061004c5760003560e01c80631109a25a146100515780632a48747a1461006d5780638813ce1214610089578063c58343ef146100a7575b600080fd5b61006b60048036038101906100669190611db6565b6100d7565b005b61008760048036038101906100829190611e5d565b6105c2565b005b610091610fbe565b60405161009e91906122ce565b60405180910390f35b6100c160048036038101906100bc91906122f0565b61138c565b6040516100ce9190612413565b60405180910390f35b6100eb67cef2d8ad71e5ca8360c01b6116ef565b6100ff6738d06791e83a6c2660c01b6116ef565b6101136701d50fbc49155d4560c01b6116ef565b600082116101615761012f675ae1e2d19302c7aa60c01b6116ef565b6040517fd45f010c00000000000000000000000000000000000000000000000000000000815260040160405180910390fd5b6101756764b1fb69aba74c3c60c01b6116ef565b610189677bd1993d040b01ff60c01b6116ef565b61019d675d6594d5592eb72a60c01b6116ef565b600084849050036101ee576101bc678334a85b9c449d2960c01b6116ef565b6040517fd45f010c00000000000000000000000000000000000000000000000000000000815260040160405180910390fd5b610202674d33f5702ba0463160c01b6116ef565b6102166711a0de3b5dd56a9160c01b6116ef565b61022a670435a348f0a2750460c01b6116ef565b6000868690500361027b5761024967040f4646f1ccbb5f60c01b6116ef565b6040517fd45f010c00000000000000000000000000000000000000000000000000000000815260040160405180910390fd5b61028f6717cdd925dd895f9460c01b6116ef565b6102a3674a0b9926c7d0f3e860c01b6116ef565b6102b767e30e3a96a127e0b760c01b6116ef565b60004290506102d0670138a923f0e376fa60c01b6116ef565b6102e467363bed8e5e772fac60c01b6116ef565b808211610331576102ff67e357d4be6ee358fc60c01b6116ef565b6040517ffef5a96000000000000000000000000000000000000000000000000000000000815260040160405180910390fd5b61034567aba580e2983d713460c01b6116ef565b61035967d2deb4a7604673d660c01b6116ef565b61036d67068fe7ef6a5cba1b60c01b6116ef565b6000604051806101600160405280600054815260200189898080601f016020809104026020016040519081016040528093929190818152602001838380828437600081840152601f19601f8201169050808301925050505050505081526020016000151581526020013373ffffffffffffffffffffffffffffffffffffffff168152602001600073ffffffffffffffffffffffffffffffffffffffff16815260200187879061041c9190612618565b8152602001858152602001838152602001848152602001600081526020016000815250905061045567a4619d164093712a60c01b6116ef565b8060026000805481526020019081526020016000206000820151816000015560208201518160010190816104899190612839565b5060408201518160020160006101000a81548160ff02191690831515021790555060608201518160020160016101000a81548173ffffffffffffffffffffffffffffffffffffffff021916908373ffffffffffffffffffffffffffffffffffffffff16021790555060808201518160030160006101000a81548173ffffffffffffffffffffffffffffffffffffffff021916908373ffffffffffffffffffffffffffffffffffffffff16021790555060a0820151816004019080519060200190610554929190611b4f565b5060c0820151816005015560e082015181600601556101008201518160070155610120820151816008015561014082015181600901559050506105a167c582e09080105d5660c01b6116ef565b6000808154809291906105b39061293a565b91905055505050505050505050565b6105d66708db980fef72410a60c01b6116ef565b6105ea67e54680682356e3b860c01b6116ef565b6105fe67b0823bfb208ce10560c01b6116ef565b600054891061064d5761061b6770132674727d978160c01b6116ef565b6040517f4b13b31e00000000000000000000000000000000000000000000000000000000815260040160405180910390fd5b610661677c576055452d638c60c01b6116ef565b610675671bbebb6be1791dee60c01b6116ef565b61068967cc35e6ea4299338a60c01b6116ef565b6000600260008b815260200190815260200160002060405180610160016040529081600082015481526020016001820180546106c49061265c565b80601f01602080910402602001604051908101604052809291908181526020018280546106f09061265c565b801561073d5780601f106107125761010080835404028352916020019161073d565b820191906000526020600020905b81548152906001019060200180831161072057829003601f168201915b505050505081526020016002820160009054906101000a900460ff161515151581526020016002820160019054906101000a900473ffffffffffffffffffffffffffffffffffffffff1673ffffffffffffffffffffffffffffffffffffffff1673ffffffffffffffffffffffffffffffffffffffff1681526020016003820160009054906101000a900473ffffffffffffffffffffffffffffffffffffffff1673ffffffffffffffffffffffffffffffffffffffff1673ffffffffffffffffffffffffffffffffffffffff16815260200160048201805480602002602001604051908101604052809291908181526020016000905b828210156108de5783829060005260206000200180546108519061265c565b80601f016020809104026020016040519081016040528092919081815260200182805461087d9061265c565b80156108ca5780601f1061089f576101008083540402835291602001916108ca565b820191906000526020600020905b8154815290600101906020018083116108ad57829003601f168201915b505050505081526020019060010190610832565b50505050815260200160058201548152602001600682015481526020016007820154815260200160088201548152602001600982015481525050905061092e672d7f72f0f663f93b60c01b6116ef565b61094267eb8581c65bdade6c60c01b6116ef565b8060400151156109925761096067d5af866bf5222ffb60c01b6116ef565b6040517f6155e82400000000000000000000000000000000000000000000000000000000815260040160405180910390fd5b6109a6672c1455888ff8eda860c01b6116ef565b6109ba67ba451a1caf239d5a60c01b6116ef565b6109ce67da7deffacd7c7b6c60c01b6116ef565b60008989905003610a1f576109ed67d333d4844f54db4960c01b6116ef565b6040517fd45f010c00000000000000000000000000000000000000000000000000000000815260040160405180910390fd5b610a33673c6d70e0c13c139e60c01b6116ef565b610a4767f2d10d395198741b60c01b6116ef565b610a5b670134f78c554e5cae60c01b6116ef565b60008383905003610aac57610a7a674dfb6725fd8a185860c01b6116ef565b6040517fd45f010c00000000000000000000000000000000000000000000000000000000815260040160405180910390fd5b610ac06756657d25d47a399a60c01b6116ef565b610ad467388baa61dabe11c560c01b6116ef565b610ae867cc5501d127b2d70760c01b6116ef565b60008585905003610b3957610b0767b6c61f07ef9861f360c01b6116ef565b6040517fd45f010c00000000000000000000000000000000000000000000000000000000815260040160405180910390fd5b610b4d674d2d6eb7a25d80bf60c01b6116ef565b610b6167447a6e66561dd43360c01b6116ef565b610b7567c6fd322a5727fdf060c01b6116ef565b610b808a88886116f2565b610bca57610b9867bbf538a3fa93600c60c01b6116ef565b6040517fe1e517f800000000000000000000000000000000000000000000000000000000815260040160405180910390fd5b610bde670b5c37743915551560c01b6116ef565b610bf26719cb7b71b95e37ec60c01b6116ef565b610c0667a9e0ce5a248214e860c01b6116ef565b60006040518060e0016040528060015481526020018b8b8080601f016020809104026020016040519081016040528093929190818152602001838380828437600081840152601f19601f82011690508083019250505050505050815260200189898080601f016020809104026020016040519081016040528093929190818152602001838380828437600081840152601f19601f82011690508083019250505050505050815260200187878080601f016020809104026020016040519081016040528093929190818152602001838380828437600081840152601f19601f82011690508083019250505050505050815260200185858080601f016020809104026020016040519081016040528093929190818152602001838380828437600081840152601f19601f8201169050808301925050505050505081526020013373ffffffffffffffffffffffffffffffffffffffff168152602001428152509050610d7967347a9f7daebe6a6a60c01b6116ef565b80600360006001548152602001908152602001600020600082015181600001556020820151816001019081610dae9190612839565b506040820151816002019081610dc49190612839565b506060820151816003019081610dda9190612839565b506080820151816004019081610df09190612839565b5060a08201518160050160006101000a81548173ffffffffffffffffffffffffffffffffffffffff021916908373ffffffffffffffffffffffffffffffffffffffff16021790555060c08201518160060155905050610e5967889af4be379be85b60c01b6116ef565b610e6d67310bb5dd8ee4516b60c01b6116ef565b600460008c8152602001908152602001600020339080600181540180825580915050600190039060005260206000200160009091909190916101000a81548173ffffffffffffffffffffffffffffffffffffffff021916908373ffffffffffffffffffffffffffffffffffffffff160217905550610ef5679edaccfc2343d13860c01b6116ef565b610f09679f2dc4a5fae3e79260c01b6116ef565b600560008c81526020019081526020016000206001549080600181540180825580915050600190039060005260206000200160009091909190915055610f59679922b44d23a3fa5160c01b6116ef565b600260008c81526020019081526020016000206008016000815480929190610f809061293a565b9190505550610f9967a6bd47dbda4bae9c60c01b6116ef565b60016000815480929190610fac9061293a565b91905055505050505050505050505050565b6060610fd467dd061ffbbdfb1c5560c01b6116ef565b610fe86768c8c7faee911e3d60c01b6116ef565b610ffc67ad847851eb7cdfe360c01b6116ef565b6000805467ffffffffffffffff81111561101957611018612435565b5b60405190808252806020026020018201604052801561105257816020015b61103f611ba8565b8152602001906001900390816110375790505b509050611069673b4f9eac9ca0795660c01b6116ef565b61107d67adbcc3dfbdbd0a0d60c01b6116ef565b60005b60005481101561135c5761109e67d3192eca523ef1eb60c01b6116ef565b6002600082815260200190815260200160002060405180610160016040529081600082015481526020016001820180546110d79061265c565b80601f01602080910402602001604051908101604052809291908181526020018280546111039061265c565b80156111505780601f1061112557610100808354040283529160200191611150565b820191906000526020600020905b81548152906001019060200180831161113357829003601f168201915b505050505081526020016002820160009054906101000a900460ff161515151581526020016002820160019054906101000a900473ffffffffffffffffffffffffffffffffffffffff1673ffffffffffffffffffffffffffffffffffffffff1673ffffffffffffffffffffffffffffffffffffffff1681526020016003820160009054906101000a900473ffffffffffffffffffffffffffffffffffffffff1673ffffffffffffffffffffffffffffffffffffffff1673ffffffffffffffffffffffffffffffffffffffff16815260200160048201805480602002602001604051908101604052809291908181526020016000905b828210156112f15783829060005260206000200180546112649061265c565b80601f01602080910402602001604051908101604052809291908181526020018280546112909061265c565b80156112dd5780601f106112b2576101008083540402835291602001916112dd565b820191906000526020600020905b8154815290600101906020018083116112c057829003601f168201915b505050505081526020019060010190611245565b5050505081526020016005820154815260200160068201548152602001600782015481526020016008820154815260200160098201548152505082828151811061133e5761133d612982565b5b602002602001018190525080806113549061293a565b915050611080565b50611371676b180d1ada1cb1db60c01b6116ef565b61138567d11d35a6dcaf872d60c01b6116ef565b8091505090565b611394611ba8565b6113a867464e311af999466f60c01b6116ef565b6113bc6712bc2cf8c879f51660c01b6116ef565b6113d0676efbe603bf8bb8ee60c01b6116ef565b600054821061141f576113ed67a87490be08ca1fbe60c01b6116ef565b6040517f4b13b31e00000000000000000000000000000000000000000000000000000000815260040160405180910390fd5b611433673a38166b1a259a2060c01b6116ef565b61144767b9b765bafe86c5e360c01b6116ef565b61145b67b3fee3d58d0b3df660c01b6116ef565b6002600083815260200190815260200160002060405180610160016040529081600082015481526020016001820180546114949061265c565b80601f01602080910402602001604051908101604052809291908181526020018280546114c09061265c565b801561150d5780601f106114e25761010080835404028352916020019161150d565b820191906000526020600020905b8154815290600101906020018083116114f057829003601f168201915b505050505081526020016002820160009054906101000a900460ff161515151581526020016002820160019054906101000a900473ffffffffffffffffffffffffffffffffffffffff1673ffffffffffffffffffffffffffffffffffffffff1673ffffffffffffffffffffffffffffffffffffffff1681526020016003820160009054906101000a900473ffffffffffffffffffffffffffffffffffffffff1673ffffffffffffffffffffffffffffffffffffffff1673ffffffffffffffffffffffffffffffffffffffff16815260200160048201805480602002602001604051908101604052809291908181526020016000905b828210156116ae5783829060005260206000200180546116219061265c565b80601f016020809104026020016040519081016040528092919081815260200182805461164d9061265c565b801561169a5780601f1061166f5761010080835404028352916020019161169a565b820191906000526020600020905b81548152906001019060200180831161167d57829003601f168201915b505050505081526020019060010190611602565b505050508152602001600582015481526020016006820154815260200160078201548152602001600882015481526020016009820154815250509050919050565b50565b600061170867a3f12a79d450ca7a60c01b6116ef565b61171c6755fc56bb5e017f4e60c01b6116ef565b61173067f39f7057ce08fa7d60c01b6116ef565b600060026000868152602001908152602001600020604051806101600160405290816000820154815260200160018201805461176b9061265c565b80601f01602080910402602001604051908101604052809291908181526020018280546117979061265c565b80156117e45780601f106117b9576101008083540402835291602001916117e4565b820191906000526020600020905b8154815290600101906020018083116117c757829003601f168201915b505050505081526020016002820160009054906101000a900460ff161515151581526020016002820160019054906101000a900473ffffffffffffffffffffffffffffffffffffffff1673ffffffffffffffffffffffffffffffffffffffff1673ffffffffffffffffffffffffffffffffffffffff1681526020016003820160009054906101000a900473ffffffffffffffffffffffffffffffffffffffff1673ffffffffffffffffffffffffffffffffffffffff1673ffffffffffffffffffffffffffffffffffffffff16815260200160048201805480602002602001604051908101604052809291908181526020016000905b828210156119855783829060005260206000200180546118f89061265c565b80601f01602080910402602001604051908101604052809291908181526020018280546119249061265c565b80156119715780601f1061194657610100808354040283529160200191611971565b820191906000526020600020905b81548152906001019060200180831161195457829003601f168201915b5050505050815260200190600101906118d9565b5050505081526020016005820154815260200160068201548152602001600782015481526020016008820154815260200160098201548152505090506119d5672d82a65264104b7160c01b6116ef565b6119e9679b1b74fb58c8536f60c01b6116ef565b60008160a001519050611a0667dfae99f588649f4a60c01b6116ef565b611a1a67b548462f4443a65060c01b6116ef565b60005b8151811015611b1857611a3a67ae68bb4f4884717860c01b6116ef565b611a4e6739f2e5c4433c0abc60c01b6116ef565b8585604051602001611a619291906129ef565b60405160208183030381529060405280519060200120828281518110611a8a57611a89612982565b5b6020026020010151604051602001611aa29190612a4c565b6040516020818303038152906040528051906020012003611af157611ad1673f2d4dc3141d51a960c01b6116ef565b611ae5673c86c6e64abfecae60c01b6116ef565b60019350505050611b48565b611b0567feaf95a45455359860c01b6116ef565b8080611b109061293a565b915050611a1d565b50611b2d6790fb95e573f1fe2c60c01b6116ef565b611b4167aa966f6390ddd28e60c01b6116ef565b6000925050505b9392505050565b828054828255906000526020600020908101928215611b97579160200282015b82811115611b96578251829081611b869190612839565b5091602001919060010190611b6f565b5b509050611ba49190611c30565b5090565b6040518061016001604052806000815260200160608152602001600015158152602001600073ffffffffffffffffffffffffffffffffffffffff168152602001600073ffffffffffffffffffffffffffffffffffffffff1681526020016060815260200160008152602001600081526020016000815260200160008152602001600081525090565b5b80821115611c505760008181611c479190611c54565b50600101611c31565b5090565b508054611c609061265c565b6000825580601f10611c725750611c91565b601f016020900490600052602060002090810190611c909190611c94565b5b50565b5b80821115611cad576000816000905550600101611c95565b5090565b6000604051905090565b600080fd5b600080fd5b600080fd5b600080fd5b600080fd5b60008083601f840112611cea57611ce9611cc5565b5b8235905067ffffffffffffffff811115611d0757611d06611cca565b5b602083019150836001820283011115611d2357611d22611ccf565b5b9250929050565b60008083601f840112611d4057611d3f611cc5565b5b8235905067ffffffffffffffff811115611d5d57611d5c611cca565b5b602083019150836020820283011115611d7957611d78611ccf565b5b9250929050565b6000819050919050565b611d9381611d80565b8114611d9e57600080fd5b50565b600081359050611db081611d8a565b92915050565b60008060008060008060808789031215611dd357611dd2611cbb565b5b600087013567ffffffffffffffff811115611df157611df0611cc0565b5b611dfd89828a01611cd4565b9650965050602087013567ffffffffffffffff811115611e2057611e1f611cc0565b5b611e2c89828a01611d2a565b94509450506040611e3f89828a01611da1565b9250506060611e5089828a01611da1565b9150509295509295509295565b600080600080600080600080600060a08a8c031215611e7f57611e7e611cbb565b5b6000611e8d8c828d01611da1565b99505060208a013567ffffffffffffffff811115611eae57611ead611cc0565b5b611eba8c828d01611cd4565b985098505060408a013567ffffffffffffffff811115611edd57611edc611cc0565b5b611ee98c828d01611cd4565b965096505060608a013567ffffffffffffffff811115611f0c57611f0b611cc0565b5b611f188c828d01611cd4565b945094505060808a013567ffffffffffffffff811115611f3b57611f3a611cc0565b5b611f478c828d01611cd4565b92509250509295985092959850929598565b600081519050919050565b600082825260208201905092915050565b6000819050602082019050919050565b611f8e81611d80565b82525050565b600081519050919050565b600082825260208201905092915050565b60005b83811015611fce578082015181840152602081019050611fb3565b60008484015250505050565b6000601f19601f8301169050919050565b6000611ff682611f94565b6120008185611f9f565b9350612010818560208601611fb0565b61201981611fda565b840191505092915050565b60008115159050919050565b61203981612024565b82525050565b600073ffffffffffffffffffffffffffffffffffffffff82169050919050565b600061206a8261203f565b9050919050565b61207a8161205f565b82525050565b600081519050919050565b600082825260208201905092915050565b6000819050602082019050919050565b60006120b88383611feb565b905092915050565b6000602082019050919050565b60006120d882612080565b6120e2818561208b565b9350836020820285016120f48561209c565b8060005b85811015612130578484038952815161211185826120ac565b945061211c836120c0565b925060208a019950506001810190506120f8565b50829750879550505050505092915050565b60006101608301600083015161215b6000860182611f85565b50602083015184820360208601526121738282611feb565b91505060408301516121886040860182612030565b50606083015161219b6060860182612071565b5060808301516121ae6080860182612071565b5060a083015184820360a08601526121c682826120cd565b91505060c08301516121db60c0860182611f85565b5060e08301516121ee60e0860182611f85565b50610100830151612203610100860182611f85565b50610120830151612218610120860182611f85565b5061014083015161222d610140860182611f85565b508091505092915050565b60006122448383612142565b905092915050565b6000602082019050919050565b600061226482611f59565b61226e8185611f64565b93508360208202850161228085611f75565b8060005b858110156122bc578484038952815161229d8582612238565b94506122a88361224c565b925060208a01995050600181019050612284565b50829750879550505050505092915050565b600060208201905081810360008301526122e88184612259565b905092915050565b60006020828403121561230657612305611cbb565b5b600061231484828501611da1565b91505092915050565b6000610160830160008301516123366000860182611f85565b506020830151848203602086015261234e8282611feb565b91505060408301516123636040860182612030565b5060608301516123766060860182612071565b5060808301516123896080860182612071565b5060a083015184820360a08601526123a182826120cd565b91505060c08301516123b660c0860182611f85565b5060e08301516123c960e0860182611f85565b506101008301516123de610100860182611f85565b506101208301516123f3610120860182611f85565b50610140830151612408610140860182611f85565b508091505092915050565b6000602082019050818103600083015261242d818461231d565b905092915050565b7f4e487b7100000000000000000000000000000000000000000000000000000000600052604160045260246000fd5b61246d82611fda565b810181811067ffffffffffffffff8211171561248c5761248b612435565b5b80604052505050565b600061249f611cb1565b90506124ab8282612464565b919050565b600067ffffffffffffffff8211156124cb576124ca612435565b5b602082029050602081019050919050565b600080fd5b600067ffffffffffffffff8211156124fc576124fb612435565b5b61250582611fda565b9050602081019050919050565b82818337600083830152505050565b600061253461252f846124e1565b612495565b9050828152602081018484840111156125505761254f6124dc565b5b61255b848285612512565b509392505050565b600082601f83011261257857612577611cc5565b5b8135612588848260208601612521565b91505092915050565b60006125a461259f846124b0565b612495565b905080838252602082019050602084028301858111156125c7576125c6611ccf565b5b835b8181101561260e57803567ffffffffffffffff8111156125ec576125eb611cc5565b5b8086016125f98982612563565b855260208501945050506020810190506125c9565b5050509392505050565b6000612625368484612591565b905092915050565b7f4e487b7100000000000000000000000000000000000000000000000000000000600052602260045260246000fd5b6000600282049050600182168061267457607f821691505b6020821081036126875761268661262d565b5b50919050565b60008190508160005260206000209050919050565b60006020601f8301049050919050565b600082821b905092915050565b6000600883026126ef7fffffffffffffffffffffffffffffffffffffffffffffffffffffffffffffffff826126b2565b6126f986836126b2565b95508019841693508086168417925050509392505050565b6000819050919050565b600061273661273161272c84611d80565b612711565b611d80565b9050919050565b6000819050919050565b6127508361271b565b61276461275c8261273d565b8484546126bf565b825550505050565b600090565b61277961276c565b612784818484612747565b505050565b5b818110156127a85761279d600082612771565b60018101905061278a565b5050565b601f8211156127ed576127be8161268d565b6127c7846126a2565b810160208510156127d6578190505b6127ea6127e2856126a2565b830182612789565b50505b505050565b600082821c905092915050565b6000612810600019846008026127f2565b1980831691505092915050565b600061282983836127ff565b9150826002028217905092915050565b61284282611f94565b67ffffffffffffffff81111561285b5761285a612435565b5b612865825461265c565b6128708282856127ac565b600060209050601f8311600181146128a35760008415612891578287015190505b61289b858261281d565b865550612903565b601f1984166128b18661268d565b60005b828110156128d9578489015182556001820191506020850194506020810190506128b4565b868310156128f657848901516128f2601f8916826127ff565b8355505b6001600288020188555050505b505050505050565b7f4e487b7100000000000000000000000000000000000000000000000000000000600052601160045260246000fd5b600061294582611d80565b91507fffffffffffffffffffffffffffffffffffffffffffffffffffffffffffffffff82036129775761297661290b565b5b600182019050919050565b7f4e487b7100000000000000000000000000000000000000000000000000000000600052603260045260246000fd5b600082825260208201905092915050565b60006129ce83856129b1565b93506129db838584612512565b6129e483611fda565b840190509392505050565b60006020820190508181036000830152612a0a8184866129c2565b90509392505050565b6000612a1e82611f94565b612a2881856129b1565b9350612a38818560208601611fb0565b612a4181611fda565b840191505092915050565b60006020820190508181036000830152612a668184612a13565b90509291505056fea2646970667358221220ae57b6a312606d33aa66a4ac0631aa7767bf215d280fc3a8f0d1c18204f01e9764736f6c63430008120033",
  "linkReferences": {},
  "deployedLinkReferences": {}
}